Archive member included to satisfy reference by file (symbol)

/home/brian/Ac6/SystemWorkbench/plugins/fr.ac6.mcu.externaltools.arm-none.linux64_1.15.0.201708311556/tools/compiler/bin/../lib/gcc/arm-none-eabi/6.3.1/../../../../arm-none-eabi/lib/thumb/v7e-m/fpv4-sp/hard/libc_nano.a(lib_a-exit.o)
                              /home/brian/Ac6/SystemWorkbench/plugins/fr.ac6.mcu.externaltools.arm-none.linux64_1.15.0.201708311556/tools/compiler/bin/../lib/gcc/arm-none-eabi/6.3.1/../../../../arm-none-eabi/lib/thumb/v7e-m/fpv4-sp/hard/crt0.o (exit)
/home/brian/Ac6/SystemWorkbench/plugins/fr.ac6.mcu.externaltools.arm-none.linux64_1.15.0.201708311556/tools/compiler/bin/../lib/gcc/arm-none-eabi/6.3.1/../../../../arm-none-eabi/lib/thumb/v7e-m/fpv4-sp/hard/libc_nano.a(lib_a-impure.o)
                              /home/brian/Ac6/SystemWorkbench/plugins/fr.ac6.mcu.externaltools.arm-none.linux64_1.15.0.201708311556/tools/compiler/bin/../lib/gcc/arm-none-eabi/6.3.1/../../../../arm-none-eabi/lib/thumb/v7e-m/fpv4-sp/hard/libc_nano.a(lib_a-exit.o) (_global_impure_ptr)
/home/brian/Ac6/SystemWorkbench/plugins/fr.ac6.mcu.externaltools.arm-none.linux64_1.15.0.201708311556/tools/compiler/bin/../lib/gcc/arm-none-eabi/6.3.1/../../../../arm-none-eabi/lib/thumb/v7e-m/fpv4-sp/hard/libc_nano.a(lib_a-init.o)
                              /home/brian/Ac6/SystemWorkbench/plugins/fr.ac6.mcu.externaltools.arm-none.linux64_1.15.0.201708311556/tools/compiler/bin/../lib/gcc/arm-none-eabi/6.3.1/../../../../arm-none-eabi/lib/thumb/v7e-m/fpv4-sp/hard/crt0.o (__libc_init_array)
/home/brian/Ac6/SystemWorkbench/plugins/fr.ac6.mcu.externaltools.arm-none.linux64_1.15.0.201708311556/tools/compiler/bin/../lib/gcc/arm-none-eabi/6.3.1/../../../../arm-none-eabi/lib/thumb/v7e-m/fpv4-sp/hard/libc_nano.a(lib_a-memcpy-stub.o)
                              Src/usb_device.o (memcpy)
/home/brian/Ac6/SystemWorkbench/plugins/fr.ac6.mcu.externaltools.arm-none.linux64_1.15.0.201708311556/tools/compiler/bin/../lib/gcc/arm-none-eabi/6.3.1/../../../../arm-none-eabi/lib/thumb/v7e-m/fpv4-sp/hard/libc_nano.a(lib_a-memset.o)
                              /home/brian/Ac6/SystemWorkbench/plugins/fr.ac6.mcu.externaltools.arm-none.linux64_1.15.0.201708311556/tools/compiler/bin/../lib/gcc/arm-none-eabi/6.3.1/../../../../arm-none-eabi/lib/thumb/v7e-m/fpv4-sp/hard/crt0.o (memset)
/home/brian/Ac6/SystemWorkbench/plugins/fr.ac6.mcu.externaltools.arm-none.linux64_1.15.0.201708311556/tools/compiler/bin/../lib/gcc/arm-none-eabi/6.3.1/../../../../arm-none-eabi/lib/thumb/v7e-m/fpv4-sp/hard/libnosys.a(_exit.o)
                              /home/brian/Ac6/SystemWorkbench/plugins/fr.ac6.mcu.externaltools.arm-none.linux64_1.15.0.201708311556/tools/compiler/bin/../lib/gcc/arm-none-eabi/6.3.1/../../../../arm-none-eabi/lib/thumb/v7e-m/fpv4-sp/hard/libc_nano.a(lib_a-exit.o) (_exit)

Allocating common symbols
Common symbol       size              file

hUsbDeviceFS        0x224             Src/usb_device.o
donut               0x4               Middlewares/ST/STM32_USB_Device_Library/Class/HID/Src/usbd_hid.o
hpcd_USB_OTG_FS     0x3cc             Src/usbd_conf.o
spudnut             0x4               Middlewares/ST/STM32_USB_Device_Library/Class/HID/Src/usbd_hid.o
uwTick              0x4               Drivers/STM32L4xx_HAL_Driver/Src/stm32l4xx_hal.o
pFlash              0x20              Drivers/STM32L4xx_HAL_Driver/Src/stm32l4xx_hal_flash.o
black               0x4               Src/stm32l4xx_it.o
usb_hid_tx_buf      0x40              Src/main.o
time                0x4               Src/main.o
jack                0x4               Src/stm32l4xx_it.o
USBD_StrDesc        0x200             Src/usbd_desc.o

Discarded input sections

 .text          0x0000000000000000        0x0 /home/brian/Ac6/SystemWorkbench/plugins/fr.ac6.mcu.externaltools.arm-none.linux64_1.15.0.201708311556/tools/compiler/bin/../lib/gcc/arm-none-eabi/6.3.1/thumb/v7e-m/fpv4-sp/hard/crti.o
 .data          0x0000000000000000        0x0 /home/brian/Ac6/SystemWorkbench/plugins/fr.ac6.mcu.externaltools.arm-none.linux64_1.15.0.201708311556/tools/compiler/bin/../lib/gcc/arm-none-eabi/6.3.1/thumb/v7e-m/fpv4-sp/hard/crti.o
 .bss           0x0000000000000000        0x0 /home/brian/Ac6/SystemWorkbench/plugins/fr.ac6.mcu.externaltools.arm-none.linux64_1.15.0.201708311556/tools/compiler/bin/../lib/gcc/arm-none-eabi/6.3.1/thumb/v7e-m/fpv4-sp/hard/crti.o
 .data          0x0000000000000000        0x4 /home/brian/Ac6/SystemWorkbench/plugins/fr.ac6.mcu.externaltools.arm-none.linux64_1.15.0.201708311556/tools/compiler/bin/../lib/gcc/arm-none-eabi/6.3.1/thumb/v7e-m/fpv4-sp/hard/crtbegin.o
 .text          0x0000000000000000       0x74 /home/brian/Ac6/SystemWorkbench/plugins/fr.ac6.mcu.externaltools.arm-none.linux64_1.15.0.201708311556/tools/compiler/bin/../lib/gcc/arm-none-eabi/6.3.1/../../../../arm-none-eabi/lib/thumb/v7e-m/fpv4-sp/hard/crt0.o
 .data          0x0000000000000000        0x0 /home/brian/Ac6/SystemWorkbench/plugins/fr.ac6.mcu.externaltools.arm-none.linux64_1.15.0.201708311556/tools/compiler/bin/../lib/gcc/arm-none-eabi/6.3.1/../../../../arm-none-eabi/lib/thumb/v7e-m/fpv4-sp/hard/crt0.o
 .bss           0x0000000000000000        0x0 /home/brian/Ac6/SystemWorkbench/plugins/fr.ac6.mcu.externaltools.arm-none.linux64_1.15.0.201708311556/tools/compiler/bin/../lib/gcc/arm-none-eabi/6.3.1/../../../../arm-none-eabi/lib/thumb/v7e-m/fpv4-sp/hard/crt0.o
 .ARM.extab     0x0000000000000000        0x0 /home/brian/Ac6/SystemWorkbench/plugins/fr.ac6.mcu.externaltools.arm-none.linux64_1.15.0.201708311556/tools/compiler/bin/../lib/gcc/arm-none-eabi/6.3.1/../../../../arm-none-eabi/lib/thumb/v7e-m/fpv4-sp/hard/crt0.o
 .ARM.exidx     0x0000000000000000        0x8 /home/brian/Ac6/SystemWorkbench/plugins/fr.ac6.mcu.externaltools.arm-none.linux64_1.15.0.201708311556/tools/compiler/bin/../lib/gcc/arm-none-eabi/6.3.1/../../../../arm-none-eabi/lib/thumb/v7e-m/fpv4-sp/hard/crt0.o
 .ARM.attributes
                0x0000000000000000       0x20 /home/brian/Ac6/SystemWorkbench/plugins/fr.ac6.mcu.externaltools.arm-none.linux64_1.15.0.201708311556/tools/compiler/bin/../lib/gcc/arm-none-eabi/6.3.1/../../../../arm-none-eabi/lib/thumb/v7e-m/fpv4-sp/hard/crt0.o
 .group         0x0000000000000000        0x8 Drivers/STM32L4xx_HAL_Driver/Src/stm32l4xx_hal.o
 .group         0x0000000000000000        0x8 Drivers/STM32L4xx_HAL_Driver/Src/stm32l4xx_hal.o
 .group         0x0000000000000000        0x8 Drivers/STM32L4xx_HAL_Driver/Src/stm32l4xx_hal.o
 .group         0x0000000000000000        0x8 Drivers/STM32L4xx_HAL_Driver/Src/stm32l4xx_hal.o
 .group         0x0000000000000000        0x8 Drivers/STM32L4xx_HAL_Driver/Src/stm32l4xx_hal.o
 .group         0x0000000000000000        0x8 Drivers/STM32L4xx_HAL_Driver/Src/stm32l4xx_hal.o
 .group         0x0000000000000000        0x8 Drivers/STM32L4xx_HAL_Driver/Src/stm32l4xx_hal.o
Memory Configuration

Name             Origin             Length             Attributes
RAM              0x0000000020000000 0x0000000000018000 xrw
RAM2             0x0000000010000000 0x0000000000008000 xrw
FLASH            0x0000000008000000 0x0000000000100000 xr
*default*        0x0000000000000000 0xffffffffffffffff

Linker script and memory map

LOAD /home/brian/Ac6/SystemWorkbench/plugins/fr.ac6.mcu.externaltools.arm-none.linux64_1.15.0.201708311556/tools/compiler/bin/../lib/gcc/arm-none-eabi/6.3.1/thumb/v7e-m/fpv4-sp/hard/crti.o
LOAD /home/brian/Ac6/SystemWorkbench/plugins/fr.ac6.mcu.externaltools.arm-none.linux64_1.15.0.201708311556/tools/compiler/bin/../lib/gcc/arm-none-eabi/6.3.1/thumb/v7e-m/fpv4-sp/hard/crtbegin.o
LOAD /home/brian/Ac6/SystemWorkbench/plugins/fr.ac6.mcu.externaltools.arm-none.linux64_1.15.0.201708311556/tools/compiler/bin/../lib/gcc/arm-none-eabi/6.3.1/../../../../arm-none-eabi/lib/thumb/v7e-m/fpv4-sp/hard/crt0.o
LOAD Drivers/STM32L4xx_HAL_Driver/Src/stm32l4xx_hal.o
LOAD Drivers/STM32L4xx_HAL_Driver/Src/stm32l4xx_hal_cortex.o
LOAD Drivers/STM32L4xx_HAL_Driver/Src/stm32l4xx_hal_dma.o
LOAD Drivers/STM32L4xx_HAL_Driver/Src/stm32l4xx_hal_dma_ex.o
LOAD Drivers/STM32L4xx_HAL_Driver/Src/stm32l4xx_hal_flash.o
LOAD Drivers/STM32L4xx_HAL_Driver/Src/stm32l4xx_hal_flash_ex.o
LOAD Drivers/STM32L4xx_HAL_Driver/Src/stm32l4xx_hal_flash_ramfunc.o
LOAD Drivers/STM32L4xx_HAL_Driver/Src/stm32l4xx_hal_gpio.o
LOAD Drivers/STM32L4xx_HAL_Driver/Src/stm32l4xx_hal_i2c.o
LOAD Drivers/STM32L4xx_HAL_Driver/Src/stm32l4xx_hal_i2c_ex.o
LOAD Drivers/STM32L4xx_HAL_Driver/Src/stm32l4xx_hal_pcd.o
LOAD Drivers/STM32L4xx_HAL_Driver/Src/stm32l4xx_hal_pcd_ex.o
LOAD Drivers/STM32L4xx_HAL_Driver/Src/stm32l4xx_hal_pwr.o
LOAD Drivers/STM32L4xx_HAL_Driver/Src/stm32l4xx_hal_pwr_ex.o
LOAD Drivers/STM32L4xx_HAL_Driver/Src/stm32l4xx_hal_rcc.o
LOAD Drivers/STM32L4xx_HAL_Driver/Src/stm32l4xx_hal_rcc_ex.o
LOAD Drivers/STM32L4xx_HAL_Driver/Src/stm32l4xx_hal_tim.o
LOAD Drivers/STM32L4xx_HAL_Driver/Src/stm32l4xx_hal_tim_ex.o
LOAD Drivers/STM32L4xx_HAL_Driver/Src/stm32l4xx_ll_usb.o
LOAD Middlewares/ST/STM32_USB_Device_Library/Class/HID/Src/usbd_hid.o
LOAD Middlewares/ST/STM32_USB_Device_Library/Core/Src/usbd_core.o
LOAD Middlewares/ST/STM32_USB_Device_Library/Core/Src/usbd_ctlreq.o
LOAD Middlewares/ST/STM32_USB_Device_Library/Core/Src/usbd_ioreq.o
LOAD Src/main.o
LOAD Src/stm32l4xx_hal_msp.o
LOAD Src/stm32l4xx_it.o
LOAD Src/system_stm32l4xx.o
LOAD Src/usb_device.o
LOAD Src/usbd_conf.o
LOAD Src/usbd_desc.o
LOAD startup/startup_stm32l476xx.o
LOAD /home/brian/Ac6/SystemWorkbench/plugins/fr.ac6.mcu.externaltools.arm-none.linux64_1.15.0.201708311556/tools/compiler/bin/../lib/gcc/arm-none-eabi/6.3.1/../../../../arm-none-eabi/lib/thumb/v7e-m/fpv4-sp/hard/libm.a
START GROUP
LOAD /home/brian/Ac6/SystemWorkbench/plugins/fr.ac6.mcu.externaltools.arm-none.linux64_1.15.0.201708311556/tools/compiler/bin/../lib/gcc/arm-none-eabi/6.3.1/thumb/v7e-m/fpv4-sp/hard/libgcc.a
LOAD /home/brian/Ac6/SystemWorkbench/plugins/fr.ac6.mcu.externaltools.arm-none.linux64_1.15.0.201708311556/tools/compiler/bin/../lib/gcc/arm-none-eabi/6.3.1/../../../../arm-none-eabi/lib/thumb/v7e-m/fpv4-sp/hard/libc_nano.a
END GROUP
START GROUP
LOAD /home/brian/Ac6/SystemWorkbench/plugins/fr.ac6.mcu.externaltools.arm-none.linux64_1.15.0.201708311556/tools/compiler/bin/../lib/gcc/arm-none-eabi/6.3.1/thumb/v7e-m/fpv4-sp/hard/libgcc.a
LOAD /home/brian/Ac6/SystemWorkbench/plugins/fr.ac6.mcu.externaltools.arm-none.linux64_1.15.0.201708311556/tools/compiler/bin/../lib/gcc/arm-none-eabi/6.3.1/../../../../arm-none-eabi/lib/thumb/v7e-m/fpv4-sp/hard/libc_nano.a
LOAD /home/brian/Ac6/SystemWorkbench/plugins/fr.ac6.mcu.externaltools.arm-none.linux64_1.15.0.201708311556/tools/compiler/bin/../lib/gcc/arm-none-eabi/6.3.1/../../../../arm-none-eabi/lib/thumb/v7e-m/fpv4-sp/hard/libnosys.a
END GROUP
START GROUP
LOAD /home/brian/Ac6/SystemWorkbench/plugins/fr.ac6.mcu.externaltools.arm-none.linux64_1.15.0.201708311556/tools/compiler/bin/../lib/gcc/arm-none-eabi/6.3.1/thumb/v7e-m/fpv4-sp/hard/libgcc.a
LOAD /home/brian/Ac6/SystemWorkbench/plugins/fr.ac6.mcu.externaltools.arm-none.linux64_1.15.0.201708311556/tools/compiler/bin/../lib/gcc/arm-none-eabi/6.3.1/../../../../arm-none-eabi/lib/thumb/v7e-m/fpv4-sp/hard/libc_nano.a
LOAD /home/brian/Ac6/SystemWorkbench/plugins/fr.ac6.mcu.externaltools.arm-none.linux64_1.15.0.201708311556/tools/compiler/bin/../lib/gcc/arm-none-eabi/6.3.1/../../../../arm-none-eabi/lib/thumb/v7e-m/fpv4-sp/hard/libnosys.a
END GROUP
LOAD /home/brian/Ac6/SystemWorkbench/plugins/fr.ac6.mcu.externaltools.arm-none.linux64_1.15.0.201708311556/tools/compiler/bin/../lib/gcc/arm-none-eabi/6.3.1/thumb/v7e-m/fpv4-sp/hard/crtend.o
LOAD /home/brian/Ac6/SystemWorkbench/plugins/fr.ac6.mcu.externaltools.arm-none.linux64_1.15.0.201708311556/tools/compiler/bin/../lib/gcc/arm-none-eabi/6.3.1/thumb/v7e-m/fpv4-sp/hard/crtn.o
                0x0000000020018000                _estack = 0x20018000
                0x0000000000002000                _Min_Heap_Size = 0x2000
                0x0000000000004000                _Min_Stack_Size = 0x4000

.isr_vector     0x0000000008000000      0x188
                0x0000000008000000                . = ALIGN (0x8)
 *(.isr_vector)
 .isr_vector    0x0000000008000000      0x188 startup/startup_stm32l476xx.o
                0x0000000008000000                g_pfnVectors
                0x0000000008000188                . = ALIGN (0x8)

.text           0x0000000008000188     0x3af0
                0x0000000008000188                . = ALIGN (0x8)
 *(.text)
 .text          0x0000000008000188       0x6c /home/brian/Ac6/SystemWorkbench/plugins/fr.ac6.mcu.externaltools.arm-none.linux64_1.15.0.201708311556/tools/compiler/bin/../lib/gcc/arm-none-eabi/6.3.1/thumb/v7e-m/fpv4-sp/hard/crtbegin.o
 *(.text*)
 .text.HAL_InitTick
                0x00000000080001f4       0x2c Drivers/STM32L4xx_HAL_Driver/Src/stm32l4xx_hal.o
                0x00000000080001f4                HAL_InitTick
 .text.HAL_Init
                0x0000000008000220       0x24 Drivers/STM32L4xx_HAL_Driver/Src/stm32l4xx_hal.o
                0x0000000008000220                HAL_Init
 .text.HAL_IncTick
                0x0000000008000244       0x10 Drivers/STM32L4xx_HAL_Driver/Src/stm32l4xx_hal.o
                0x0000000008000244                HAL_IncTick
 .text.HAL_GetTick
                0x0000000008000254        0xc Drivers/STM32L4xx_HAL_Driver/Src/stm32l4xx_hal.o
                0x0000000008000254                HAL_GetTick
 .text.HAL_Delay
                0x0000000008000260       0x1e Drivers/STM32L4xx_HAL_Driver/Src/stm32l4xx_hal.o
                0x0000000008000260                HAL_Delay
 *fill*         0x000000000800027e        0x2 
 .text.HAL_NVIC_SetPriorityGrouping
                0x0000000008000280       0x24 Drivers/STM32L4xx_HAL_Driver/Src/stm32l4xx_hal_cortex.o
                0x0000000008000280                HAL_NVIC_SetPriorityGrouping
 .text.HAL_NVIC_SetPriority
                0x00000000080002a4       0x64 Drivers/STM32L4xx_HAL_Driver/Src/stm32l4xx_hal_cortex.o
                0x00000000080002a4                HAL_NVIC_SetPriority
 .text.HAL_NVIC_EnableIRQ
                0x0000000008000308       0x18 Drivers/STM32L4xx_HAL_Driver/Src/stm32l4xx_hal_cortex.o
                0x0000000008000308                HAL_NVIC_EnableIRQ
 .text.HAL_SYSTICK_Config
                0x0000000008000320       0x2c Drivers/STM32L4xx_HAL_Driver/Src/stm32l4xx_hal_cortex.o
                0x0000000008000320                HAL_SYSTICK_Config
 .text.HAL_SYSTICK_CLKSourceConfig
                0x000000000800034c       0x20 Drivers/STM32L4xx_HAL_Driver/Src/stm32l4xx_hal_cortex.o
                0x000000000800034c                HAL_SYSTICK_CLKSourceConfig
 .text.HAL_SYSTICK_IRQHandler
                0x000000000800036c        0x8 Drivers/STM32L4xx_HAL_Driver/Src/stm32l4xx_hal_cortex.o
                0x000000000800036c                HAL_SYSTICK_IRQHandler
 .text.HAL_GPIO_Init
                0x0000000008000374      0x1d4 Drivers/STM32L4xx_HAL_Driver/Src/stm32l4xx_hal_gpio.o
                0x0000000008000374                HAL_GPIO_Init
 .text.PCD_WriteEmptyTxFifo
                0x0000000008000548       0xc0 Drivers/STM32L4xx_HAL_Driver/Src/stm32l4xx_hal_pcd.o
 .text.HAL_PCD_Init
                0x0000000008000608      0x108 Drivers/STM32L4xx_HAL_Driver/Src/stm32l4xx_hal_pcd.o
                0x0000000008000608                HAL_PCD_Init
 .text.HAL_PCD_Start
                0x0000000008000710       0x2a Drivers/STM32L4xx_HAL_Driver/Src/stm32l4xx_hal_pcd.o
                0x0000000008000710                HAL_PCD_Start
 *fill*         0x000000000800073a        0x2 
 .text.HAL_PCD_IRQHandler
                0x000000000800073c      0x684 Drivers/STM32L4xx_HAL_Driver/Src/stm32l4xx_hal_pcd.o
                0x000000000800073c                HAL_PCD_IRQHandler
 .text.HAL_PCD_SetAddress
                0x0000000008000dc0       0x28 Drivers/STM32L4xx_HAL_Driver/Src/stm32l4xx_hal_pcd.o
                0x0000000008000dc0                HAL_PCD_SetAddress
 .text.HAL_PCD_EP_Open
                0x0000000008000de8       0x5c Drivers/STM32L4xx_HAL_Driver/Src/stm32l4xx_hal_pcd.o
                0x0000000008000de8                HAL_PCD_EP_Open
 .text.HAL_PCD_EP_Close
                0x0000000008000e44       0x58 Drivers/STM32L4xx_HAL_Driver/Src/stm32l4xx_hal_pcd.o
                0x0000000008000e44                HAL_PCD_EP_Close
 .text.HAL_PCD_EP_Receive
                0x0000000008000e9c       0x46 Drivers/STM32L4xx_HAL_Driver/Src/stm32l4xx_hal_pcd.o
                0x0000000008000e9c                HAL_PCD_EP_Receive
 .text.HAL_PCD_EP_Transmit
                0x0000000008000ee2       0x42 Drivers/STM32L4xx_HAL_Driver/Src/stm32l4xx_hal_pcd.o
                0x0000000008000ee2                HAL_PCD_EP_Transmit
 .text.HAL_PCD_EP_SetStall
                0x0000000008000f24       0x68 Drivers/STM32L4xx_HAL_Driver/Src/stm32l4xx_hal_pcd.o
                0x0000000008000f24                HAL_PCD_EP_SetStall
 .text.HAL_PCD_EP_ClrStall
                0x0000000008000f8c       0x58 Drivers/STM32L4xx_HAL_Driver/Src/stm32l4xx_hal_pcd.o
                0x0000000008000f8c                HAL_PCD_EP_ClrStall
 .text.HAL_PCDEx_SetTxFiFo
                0x0000000008000fe4       0x48 Drivers/STM32L4xx_HAL_Driver/Src/stm32l4xx_hal_pcd_ex.o
                0x0000000008000fe4                HAL_PCDEx_SetTxFiFo
 .text.HAL_PCDEx_SetRxFiFo
                0x000000000800102c        0x8 Drivers/STM32L4xx_HAL_Driver/Src/stm32l4xx_hal_pcd_ex.o
                0x000000000800102c                HAL_PCDEx_SetRxFiFo
 .text.HAL_PCDEx_ActivateLPM
                0x0000000008001034       0x26 Drivers/STM32L4xx_HAL_Driver/Src/stm32l4xx_hal_pcd_ex.o
                0x0000000008001034                HAL_PCDEx_ActivateLPM
 .text.HAL_PCDEx_ActivateBCD
                0x000000000800105a       0x14 Drivers/STM32L4xx_HAL_Driver/Src/stm32l4xx_hal_pcd_ex.o
                0x000000000800105a                HAL_PCDEx_ActivateBCD
 *fill*         0x000000000800106e        0x2 
 .text.HAL_PWREx_GetVoltageRange
                0x0000000008001070       0x10 Drivers/STM32L4xx_HAL_Driver/Src/stm32l4xx_hal_pwr_ex.o
                0x0000000008001070                HAL_PWREx_GetVoltageRange
 .text.HAL_PWREx_ControlVoltageScaling
                0x0000000008001080       0x90 Drivers/STM32L4xx_HAL_Driver/Src/stm32l4xx_hal_pwr_ex.o
                0x0000000008001080                HAL_PWREx_ControlVoltageScaling
 .text.HAL_PWREx_EnableVddUSB
                0x0000000008001110       0x10 Drivers/STM32L4xx_HAL_Driver/Src/stm32l4xx_hal_pwr_ex.o
                0x0000000008001110                HAL_PWREx_EnableVddUSB
 .text.RCC_SetFlashLatencyFromMSIRange
                0x0000000008001120       0x90 Drivers/STM32L4xx_HAL_Driver/Src/stm32l4xx_hal_rcc.o
 .text.HAL_RCC_GetSysClockFreq
                0x00000000080011b0      0x100 Drivers/STM32L4xx_HAL_Driver/Src/stm32l4xx_hal_rcc.o
                0x00000000080011b0                HAL_RCC_GetSysClockFreq
 .text.HAL_RCC_OscConfig
                0x00000000080012b0      0x574 Drivers/STM32L4xx_HAL_Driver/Src/stm32l4xx_hal_rcc.o
                0x00000000080012b0                HAL_RCC_OscConfig
 .text.HAL_RCC_ClockConfig
                0x0000000008001824      0x1ac Drivers/STM32L4xx_HAL_Driver/Src/stm32l4xx_hal_rcc.o
                0x0000000008001824                HAL_RCC_ClockConfig
 .text.HAL_RCC_GetHCLKFreq
                0x00000000080019d0        0xc Drivers/STM32L4xx_HAL_Driver/Src/stm32l4xx_hal_rcc.o
                0x00000000080019d0                HAL_RCC_GetHCLKFreq
 .text.RCCEx_PLLSAI1_Config
                0x00000000080019dc      0x180 Drivers/STM32L4xx_HAL_Driver/Src/stm32l4xx_hal_rcc_ex.o
 .text.RCCEx_PLLSAI2_Config
                0x0000000008001b5c      0x15c Drivers/STM32L4xx_HAL_Driver/Src/stm32l4xx_hal_rcc_ex.o
 .text.HAL_RCCEx_PeriphCLKConfig
                0x0000000008001cb8      0x44c Drivers/STM32L4xx_HAL_Driver/Src/stm32l4xx_hal_rcc_ex.o
                0x0000000008001cb8                HAL_RCCEx_PeriphCLKConfig
 .text.USB_CoreInit
                0x0000000008002104       0x28 Drivers/STM32L4xx_HAL_Driver/Src/stm32l4xx_ll_usb.o
                0x0000000008002104                USB_CoreInit
 .text.USB_EnableGlobalInt
                0x000000000800212c        0xc Drivers/STM32L4xx_HAL_Driver/Src/stm32l4xx_ll_usb.o
                0x000000000800212c                USB_EnableGlobalInt
 .text.USB_DisableGlobalInt
                0x0000000008002138        0xc Drivers/STM32L4xx_HAL_Driver/Src/stm32l4xx_ll_usb.o
                0x0000000008002138                USB_DisableGlobalInt
 .text.USB_SetCurrentMode
                0x0000000008002144       0x2c Drivers/STM32L4xx_HAL_Driver/Src/stm32l4xx_ll_usb.o
                0x0000000008002144                USB_SetCurrentMode
 .text.USB_DevInit
                0x0000000008002170      0x144 Drivers/STM32L4xx_HAL_Driver/Src/stm32l4xx_ll_usb.o
                0x0000000008002170                USB_DevInit
 .text.USB_FlushTxFifo
                0x00000000080022b4       0x28 Drivers/STM32L4xx_HAL_Driver/Src/stm32l4xx_ll_usb.o
                0x00000000080022b4                USB_FlushTxFifo
 .text.USB_FlushRxFifo
                0x00000000080022dc       0x24 Drivers/STM32L4xx_HAL_Driver/Src/stm32l4xx_ll_usb.o
                0x00000000080022dc                USB_FlushRxFifo
 .text.USB_SetDevSpeed
                0x0000000008002300        0xe Drivers/STM32L4xx_HAL_Driver/Src/stm32l4xx_ll_usb.o
                0x0000000008002300                USB_SetDevSpeed
 .text.USB_ActivateEndpoint
                0x000000000800230e       0x92 Drivers/STM32L4xx_HAL_Driver/Src/stm32l4xx_ll_usb.o
                0x000000000800230e                USB_ActivateEndpoint
 .text.USB_DeactivateEndpoint
                0x00000000080023a0       0x7e Drivers/STM32L4xx_HAL_Driver/Src/stm32l4xx_ll_usb.o
                0x00000000080023a0                USB_DeactivateEndpoint
 *fill*         0x000000000800241e        0x2 
 .text.USB_EPStartXfer
                0x0000000008002420      0x23c Drivers/STM32L4xx_HAL_Driver/Src/stm32l4xx_ll_usb.o
                0x0000000008002420                USB_EPStartXfer
 .text.USB_EP0StartXfer
                0x000000000800265c      0x13a Drivers/STM32L4xx_HAL_Driver/Src/stm32l4xx_ll_usb.o
                0x000000000800265c                USB_EP0StartXfer
 .text.USB_WritePacket
                0x0000000008002796       0x24 Drivers/STM32L4xx_HAL_Driver/Src/stm32l4xx_ll_usb.o
                0x0000000008002796                USB_WritePacket
 .text.USB_ReadPacket
                0x00000000080027ba       0x28 Drivers/STM32L4xx_HAL_Driver/Src/stm32l4xx_ll_usb.o
                0x00000000080027ba                USB_ReadPacket
 .text.USB_EPSetStall
                0x00000000080027e2       0x64 Drivers/STM32L4xx_HAL_Driver/Src/stm32l4xx_ll_usb.o
                0x00000000080027e2                USB_EPSetStall
 .text.USB_EPClearStall
                0x0000000008002846       0x6a Drivers/STM32L4xx_HAL_Driver/Src/stm32l4xx_ll_usb.o
                0x0000000008002846                USB_EPClearStall
 .text.USB_SetDevAddress
                0x00000000080028b0       0x20 Drivers/STM32L4xx_HAL_Driver/Src/stm32l4xx_ll_usb.o
                0x00000000080028b0                USB_SetDevAddress
 .text.USB_DevConnect
                0x00000000080028d0       0x18 Drivers/STM32L4xx_HAL_Driver/Src/stm32l4xx_ll_usb.o
                0x00000000080028d0                USB_DevConnect
 .text.USB_DevDisconnect
                0x00000000080028e8       0x18 Drivers/STM32L4xx_HAL_Driver/Src/stm32l4xx_ll_usb.o
                0x00000000080028e8                USB_DevDisconnect
 .text.USB_ReadInterrupts
                0x0000000008002900        0x8 Drivers/STM32L4xx_HAL_Driver/Src/stm32l4xx_ll_usb.o
                0x0000000008002900                USB_ReadInterrupts
 .text.USB_ReadDevAllOutEpInterrupt
                0x0000000008002908       0x10 Drivers/STM32L4xx_HAL_Driver/Src/stm32l4xx_ll_usb.o
                0x0000000008002908                USB_ReadDevAllOutEpInterrupt
 .text.USB_ReadDevAllInEpInterrupt
                0x0000000008002918       0x10 Drivers/STM32L4xx_HAL_Driver/Src/stm32l4xx_ll_usb.o
                0x0000000008002918                USB_ReadDevAllInEpInterrupt
 .text.USB_ReadDevOutEPInterrupt
                0x0000000008002928       0x12 Drivers/STM32L4xx_HAL_Driver/Src/stm32l4xx_ll_usb.o
                0x0000000008002928                USB_ReadDevOutEPInterrupt
 .text.USB_ReadDevInEPInterrupt
                0x000000000800293a       0x1c Drivers/STM32L4xx_HAL_Driver/Src/stm32l4xx_ll_usb.o
                0x000000000800293a                USB_ReadDevInEPInterrupt
 .text.USB_GetMode
                0x0000000008002956        0x8 Drivers/STM32L4xx_HAL_Driver/Src/stm32l4xx_ll_usb.o
                0x0000000008002956                USB_GetMode
 .text.USB_ActivateSetup
                0x000000000800295e       0x38 Drivers/STM32L4xx_HAL_Driver/Src/stm32l4xx_ll_usb.o
                0x000000000800295e                USB_ActivateSetup
 .text.USB_EP0_OutStart
                0x0000000008002996       0x22 Drivers/STM32L4xx_HAL_Driver/Src/stm32l4xx_ll_usb.o
                0x0000000008002996                USB_EP0_OutStart
 .text.USB_CoreReset
                0x00000000080029b8       0x68 Drivers/STM32L4xx_HAL_Driver/Src/stm32l4xx_ll_usb.o
 .text.USBD_HID_GetCfgDesc
                0x0000000008002a20        0xc Middlewares/ST/STM32_USB_Device_Library/Class/HID/Src/usbd_hid.o
 .text.USBD_HID_DataIn
                0x0000000008002a2c        0xa Middlewares/ST/STM32_USB_Device_Library/Class/HID/Src/usbd_hid.o
 *fill*         0x0000000008002a36        0x2 
 .text.USBD_HID_GetDeviceQualifierDesc
                0x0000000008002a38        0xc Middlewares/ST/STM32_USB_Device_Library/Class/HID/Src/usbd_hid.o
 .text.USBD_HID_Setup
                0x0000000008002a44       0xc0 Middlewares/ST/STM32_USB_Device_Library/Class/HID/Src/usbd_hid.o
 .text.USBD_HID_DeInit
                0x0000000008002b04       0x1e Middlewares/ST/STM32_USB_Device_Library/Class/HID/Src/usbd_hid.o
 .text.USBD_HID_Init
                0x0000000008002b22       0x26 Middlewares/ST/STM32_USB_Device_Library/Class/HID/Src/usbd_hid.o
 .text.USBD_HID_SendReport
                0x0000000008002b48       0x78 Middlewares/ST/STM32_USB_Device_Library/Class/HID/Src/usbd_hid.o
                0x0000000008002b48                USBD_HID_SendReport
 .text.USBD_Init
                0x0000000008002bc0       0x2e Middlewares/ST/STM32_USB_Device_Library/Core/Src/usbd_core.o
                0x0000000008002bc0                USBD_Init
 .text.USBD_RegisterClass
                0x0000000008002bee        0xe Middlewares/ST/STM32_USB_Device_Library/Core/Src/usbd_core.o
                0x0000000008002bee                USBD_RegisterClass
 .text.USBD_Start
                0x0000000008002bfc        0xa Middlewares/ST/STM32_USB_Device_Library/Core/Src/usbd_core.o
                0x0000000008002bfc                USBD_Start
 .text.USBD_SetClassConfig
                0x0000000008002c06       0x1a Middlewares/ST/STM32_USB_Device_Library/Core/Src/usbd_core.o
                0x0000000008002c06                USBD_SetClassConfig
 .text.USBD_ClrClassConfig
                0x0000000008002c20        0xe Middlewares/ST/STM32_USB_Device_Library/Core/Src/usbd_core.o
                0x0000000008002c20                USBD_ClrClassConfig
 .text.USBD_LL_SetupStage
                0x0000000008002c2e       0x5a Middlewares/ST/STM32_USB_Device_Library/Core/Src/usbd_core.o
                0x0000000008002c2e                USBD_LL_SetupStage
 .text.USBD_LL_DataOutStage
                0x0000000008002c88       0x6a Middlewares/ST/STM32_USB_Device_Library/Core/Src/usbd_core.o
                0x0000000008002c88                USBD_LL_DataOutStage
 .text.USBD_LL_DataInStage
                0x0000000008002cf2       0xb2 Middlewares/ST/STM32_USB_Device_Library/Core/Src/usbd_core.o
                0x0000000008002cf2                USBD_LL_DataInStage
 .text.USBD_LL_Reset
                0x0000000008002da4       0x3e Middlewares/ST/STM32_USB_Device_Library/Core/Src/usbd_core.o
                0x0000000008002da4                USBD_LL_Reset
 .text.USBD_LL_SetSpeed
                0x0000000008002de2        0x6 Middlewares/ST/STM32_USB_Device_Library/Core/Src/usbd_core.o
                0x0000000008002de2                USBD_LL_SetSpeed
 .text.USBD_LL_Suspend
                0x0000000008002de8       0x12 Middlewares/ST/STM32_USB_Device_Library/Core/Src/usbd_core.o
                0x0000000008002de8                USBD_LL_Suspend
 .text.USBD_LL_Resume
                0x0000000008002dfa        0xc Middlewares/ST/STM32_USB_Device_Library/Core/Src/usbd_core.o
                0x0000000008002dfa                USBD_LL_Resume
 .text.USBD_LL_SOF
                0x0000000008002e06       0x1c Middlewares/ST/STM32_USB_Device_Library/Core/Src/usbd_core.o
                0x0000000008002e06                USBD_LL_SOF
 .text.USBD_LL_IsoINIncomplete
                0x0000000008002e22        0x4 Middlewares/ST/STM32_USB_Device_Library/Core/Src/usbd_core.o
                0x0000000008002e22                USBD_LL_IsoINIncomplete
 .text.USBD_LL_IsoOUTIncomplete
                0x0000000008002e26        0x4 Middlewares/ST/STM32_USB_Device_Library/Core/Src/usbd_core.o
                0x0000000008002e26                USBD_LL_IsoOUTIncomplete
 .text.USBD_LL_DevConnected
                0x0000000008002e2a        0x4 Middlewares/ST/STM32_USB_Device_Library/Core/Src/usbd_core.o
                0x0000000008002e2a                USBD_LL_DevConnected
 .text.USBD_LL_DevDisconnected
                0x0000000008002e2e       0x16 Middlewares/ST/STM32_USB_Device_Library/Core/Src/usbd_core.o
                0x0000000008002e2e                USBD_LL_DevDisconnected
 .text.USBD_GetLen
                0x0000000008002e44       0x14 Middlewares/ST/STM32_USB_Device_Library/Core/Src/usbd_ctlreq.o
 .text.USBD_SetFeature
                0x0000000008002e58       0x20 Middlewares/ST/STM32_USB_Device_Library/Core/Src/usbd_ctlreq.o
 .text.USBD_ParseSetupRequest
                0x0000000008002e78       0x28 Middlewares/ST/STM32_USB_Device_Library/Core/Src/usbd_ctlreq.o
                0x0000000008002e78                USBD_ParseSetupRequest
 .text.USBD_CtlError
                0x0000000008002ea0       0x14 Middlewares/ST/STM32_USB_Device_Library/Core/Src/usbd_ctlreq.o
                0x0000000008002ea0                USBD_CtlError
 .text.USBD_GetDescriptor
                0x0000000008002eb4      0x14a Middlewares/ST/STM32_USB_Device_Library/Core/Src/usbd_ctlreq.o
 .text.USBD_SetAddress
                0x0000000008002ffe       0x4a Middlewares/ST/STM32_USB_Device_Library/Core/Src/usbd_ctlreq.o
 .text.USBD_SetConfig
                0x0000000008003048       0xa4 Middlewares/ST/STM32_USB_Device_Library/Core/Src/usbd_ctlreq.o
 .text.USBD_GetConfig
                0x00000000080030ec       0x3a Middlewares/ST/STM32_USB_Device_Library/Core/Src/usbd_ctlreq.o
 .text.USBD_GetStatus
                0x0000000008003126       0x2c Middlewares/ST/STM32_USB_Device_Library/Core/Src/usbd_ctlreq.o
 .text.USBD_ClrFeature
                0x0000000008003152       0x32 Middlewares/ST/STM32_USB_Device_Library/Core/Src/usbd_ctlreq.o
 .text.USBD_StdDevReq
                0x0000000008003184       0x48 Middlewares/ST/STM32_USB_Device_Library/Core/Src/usbd_ctlreq.o
                0x0000000008003184                USBD_StdDevReq
 .text.USBD_StdItfReq
                0x00000000080031cc       0x38 Middlewares/ST/STM32_USB_Device_Library/Core/Src/usbd_ctlreq.o
                0x00000000080031cc                USBD_StdItfReq
 .text.USBD_StdEPReq
                0x0000000008003204      0x118 Middlewares/ST/STM32_USB_Device_Library/Core/Src/usbd_ctlreq.o
                0x0000000008003204                USBD_StdEPReq
 .text.USBD_GetString
                0x000000000800331c       0x3a Middlewares/ST/STM32_USB_Device_Library/Core/Src/usbd_ctlreq.o
                0x000000000800331c                USBD_GetString
 .text.USBD_CtlSendData
                0x0000000008003356       0x1a Middlewares/ST/STM32_USB_Device_Library/Core/Src/usbd_ioreq.o
                0x0000000008003356                USBD_CtlSendData
 .text.USBD_CtlContinueSendData
                0x0000000008003370       0x10 Middlewares/ST/STM32_USB_Device_Library/Core/Src/usbd_ioreq.o
                0x0000000008003370                USBD_CtlContinueSendData
 .text.USBD_CtlContinueRx
                0x0000000008003380       0x10 Middlewares/ST/STM32_USB_Device_Library/Core/Src/usbd_ioreq.o
                0x0000000008003380                USBD_CtlContinueRx
 .text.USBD_CtlSendStatus
                0x0000000008003390       0x16 Middlewares/ST/STM32_USB_Device_Library/Core/Src/usbd_ioreq.o
                0x0000000008003390                USBD_CtlSendStatus
 .text.USBD_CtlReceiveStatus
                0x00000000080033a6       0x16 Middlewares/ST/STM32_USB_Device_Library/Core/Src/usbd_ioreq.o
                0x00000000080033a6                USBD_CtlReceiveStatus
 .text.MX_GPIO_Init
                0x00000000080033bc       0x60 Src/main.o
 .text._Error_Handler
                0x000000000800341c        0x2 Src/main.o
                0x000000000800341c                _Error_Handler
 *fill*         0x000000000800341e        0x2 
 .text.SystemClock_Config
                0x0000000008003420       0xd0 Src/main.o
                0x0000000008003420                SystemClock_Config
 .text.main     0x00000000080034f0       0x20 Src/main.o
                0x00000000080034f0                main
 .text.USB_HID_send_report
                0x0000000008003510       0x54 Src/main.o
                0x0000000008003510                USB_HID_send_report
 .text.update_HID_data
                0x0000000008003564       0x80 Src/main.o
                0x0000000008003564                update_HID_data
 .text.HAL_SYSTICK_Callback
                0x00000000080035e4        0xc Src/main.o
                0x00000000080035e4                HAL_SYSTICK_Callback
 .text.HAL_MspInit
                0x00000000080035f0       0x90 Src/stm32l4xx_hal_msp.o
                0x00000000080035f0                HAL_MspInit
 .text.SVC_Handler
                0x0000000008003680        0x2 Src/stm32l4xx_it.o
                0x0000000008003680                SVC_Handler
 .text.PendSV_Handler
                0x0000000008003682        0x2 Src/stm32l4xx_it.o
                0x0000000008003682                PendSV_Handler
 .text.SysTick_Handler
                0x0000000008003684        0xc Src/stm32l4xx_it.o
                0x0000000008003684                SysTick_Handler
 .text.OTG_FS_IRQHandler
                0x0000000008003690       0x2c Src/stm32l4xx_it.o
                0x0000000008003690                OTG_FS_IRQHandler
 .text.SystemInit
                0x00000000080036bc       0x48 Src/system_stm32l4xx.o
                0x00000000080036bc                SystemInit
 .text.MX_USB_DEVICE_Init
                0x0000000008003704       0x34 Src/usb_device.o
                0x0000000008003704                MX_USB_DEVICE_Init
 .text.SystemClockConfig_Resume
                0x0000000008003738        0x8 Src/usbd_conf.o
 .text.HAL_PCD_MspInit
                0x0000000008003740       0x88 Src/usbd_conf.o
                0x0000000008003740                HAL_PCD_MspInit
 .text.HAL_PCD_SetupStageCallback
                0x00000000080037c8       0x10 Src/usbd_conf.o
                0x00000000080037c8                HAL_PCD_SetupStageCallback
 .text.HAL_PCD_DataOutStageCallback
                0x00000000080037d8       0x18 Src/usbd_conf.o
                0x00000000080037d8                HAL_PCD_DataOutStageCallback
 .text.HAL_PCD_DataInStageCallback
                0x00000000080037f0       0x16 Src/usbd_conf.o
                0x00000000080037f0                HAL_PCD_DataInStageCallback
 .text.HAL_PCD_SOFCallback
                0x0000000008003806        0xc Src/usbd_conf.o
                0x0000000008003806                HAL_PCD_SOFCallback
 .text.HAL_PCD_ResetCallback
                0x0000000008003812       0x18 Src/usbd_conf.o
                0x0000000008003812                HAL_PCD_ResetCallback
 *fill*         0x000000000800382a        0x2 
 .text.HAL_PCD_SuspendCallback
                0x000000000800382c       0x30 Src/usbd_conf.o
                0x000000000800382c                HAL_PCD_SuspendCallback
 .text.HAL_PCD_ResumeCallback
                0x000000000800385c       0x34 Src/usbd_conf.o
                0x000000000800385c                HAL_PCD_ResumeCallback
 .text.HAL_PCD_ISOOUTIncompleteCallback
                0x0000000008003890        0xc Src/usbd_conf.o
                0x0000000008003890                HAL_PCD_ISOOUTIncompleteCallback
 .text.HAL_PCD_ISOINIncompleteCallback
                0x000000000800389c        0xc Src/usbd_conf.o
                0x000000000800389c                HAL_PCD_ISOINIncompleteCallback
 .text.HAL_PCD_ConnectCallback
                0x00000000080038a8        0xc Src/usbd_conf.o
                0x00000000080038a8                HAL_PCD_ConnectCallback
 .text.HAL_PCD_DisconnectCallback
                0x00000000080038b4        0xc Src/usbd_conf.o
                0x00000000080038b4                HAL_PCD_DisconnectCallback
 .text.USBD_LL_Init
                0x00000000080038c0       0x74 Src/usbd_conf.o
                0x00000000080038c0                USBD_LL_Init
 .text.USBD_LL_Start
                0x0000000008003934       0x1c Src/usbd_conf.o
                0x0000000008003934                USBD_LL_Start
 .text.USBD_LL_OpenEP
                0x0000000008003950       0x22 Src/usbd_conf.o
                0x0000000008003950                USBD_LL_OpenEP
 .text.USBD_LL_CloseEP
                0x0000000008003972       0x1c Src/usbd_conf.o
                0x0000000008003972                USBD_LL_CloseEP
 .text.USBD_LL_StallEP
                0x000000000800398e       0x1c Src/usbd_conf.o
                0x000000000800398e                USBD_LL_StallEP
 .text.USBD_LL_ClearStallEP
                0x00000000080039aa       0x1c Src/usbd_conf.o
                0x00000000080039aa                USBD_LL_ClearStallEP
 .text.USBD_LL_IsStallEP
                0x00000000080039c6       0x2e Src/usbd_conf.o
                0x00000000080039c6                USBD_LL_IsStallEP
 .text.USBD_LL_SetUSBAddress
                0x00000000080039f4       0x1c Src/usbd_conf.o
                0x00000000080039f4                USBD_LL_SetUSBAddress
 .text.USBD_LL_Transmit
                0x0000000008003a10       0x1c Src/usbd_conf.o
                0x0000000008003a10                USBD_LL_Transmit
 .text.USBD_LL_PrepareReceive
                0x0000000008003a2c       0x1c Src/usbd_conf.o
                0x0000000008003a2c                USBD_LL_PrepareReceive
 .text.HAL_PCDEx_LPM_Callback
                0x0000000008003a48       0x64 Src/usbd_conf.o
                0x0000000008003a48                HAL_PCDEx_LPM_Callback
 .text.USBD_static_malloc
                0x0000000008003aac        0x8 Src/usbd_conf.o
                0x0000000008003aac                USBD_static_malloc
 .text.USBD_static_free
                0x0000000008003ab4        0x2 Src/usbd_conf.o
                0x0000000008003ab4                USBD_static_free
 .text.USBD_LL_BatteryCharging
                0x0000000008003ab6       0x12 Src/usbd_conf.o
                0x0000000008003ab6                USBD_LL_BatteryCharging
 .text.USBD_FS_DeviceDescriptor
                0x0000000008003ac8        0xc Src/usbd_desc.o
                0x0000000008003ac8                USBD_FS_DeviceDescriptor
 .text.USBD_FS_LangIDStrDescriptor
                0x0000000008003ad4        0xc Src/usbd_desc.o
                0x0000000008003ad4                USBD_FS_LangIDStrDescriptor
 .text.USBD_FS_USR_BOSDescriptor
                0x0000000008003ae0        0xc Src/usbd_desc.o
                0x0000000008003ae0                USBD_FS_USR_BOSDescriptor
 .text.USBD_FS_ProductStrDescriptor
                0x0000000008003aec       0x24 Src/usbd_desc.o
                0x0000000008003aec                USBD_FS_ProductStrDescriptor
 .text.USBD_FS_ManufacturerStrDescriptor
                0x0000000008003b10       0x1c Src/usbd_desc.o
                0x0000000008003b10                USBD_FS_ManufacturerStrDescriptor
 .text.USBD_FS_SerialStrDescriptor
                0x0000000008003b2c       0x24 Src/usbd_desc.o
                0x0000000008003b2c                USBD_FS_SerialStrDescriptor
 .text.USBD_FS_ConfigStrDescriptor
                0x0000000008003b50       0x24 Src/usbd_desc.o
                0x0000000008003b50                USBD_FS_ConfigStrDescriptor
 .text.USBD_FS_InterfaceStrDescriptor
                0x0000000008003b74       0x24 Src/usbd_desc.o
                0x0000000008003b74                USBD_FS_InterfaceStrDescriptor
 .text.Reset_Handler
                0x0000000008003b98       0x50 startup/startup_stm32l476xx.o
                0x0000000008003b98                Reset_Handler
 .text.Default_Handler
                0x0000000008003be8        0x2 startup/startup_stm32l476xx.o
                0x0000000008003be8                RTC_Alarm_IRQHandler
                0x0000000008003be8                EXTI2_IRQHandler
                0x0000000008003be8                TIM8_TRG_COM_IRQHandler
                0x0000000008003be8                TIM8_CC_IRQHandler
                0x0000000008003be8                DebugMon_Handler
                0x0000000008003be8                TIM1_CC_IRQHandler
                0x0000000008003be8                TSC_IRQHandler
                0x0000000008003be8                HardFault_Handler
                0x0000000008003be8                TAMP_STAMP_IRQHandler
                0x0000000008003be8                NMI_Handler
                0x0000000008003be8                EXTI3_IRQHandler
                0x0000000008003be8                LPTIM2_IRQHandler
                0x0000000008003be8                DFSDM1_FLT1_IRQHandler
                0x0000000008003be8                I2C3_ER_IRQHandler
                0x0000000008003be8                DFSDM1_FLT2_IRQHandler
                0x0000000008003be8                EXTI0_IRQHandler
                0x0000000008003be8                I2C2_EV_IRQHandler
                0x0000000008003be8                CAN1_RX0_IRQHandler
                0x0000000008003be8                FPU_IRQHandler
                0x0000000008003be8                TIM1_UP_TIM16_IRQHandler
                0x0000000008003be8                UsageFault_Handler
                0x0000000008003be8                ADC1_2_IRQHandler
                0x0000000008003be8                SPI1_IRQHandler
                0x0000000008003be8                TIM6_DAC_IRQHandler
                0x0000000008003be8                TIM8_UP_IRQHandler
                0x0000000008003be8                DMA2_Channel2_IRQHandler
                0x0000000008003be8                DMA1_Channel4_IRQHandler
                0x0000000008003be8                SAI2_IRQHandler
                0x0000000008003be8                DFSDM1_FLT3_IRQHandler
                0x0000000008003be8                USART3_IRQHandler
                0x0000000008003be8                DMA1_Channel7_IRQHandler
                0x0000000008003be8                CAN1_RX1_IRQHandler
                0x0000000008003be8                LCD_IRQHandler
                0x0000000008003be8                UART5_IRQHandler
                0x0000000008003be8                ADC3_IRQHandler
                0x0000000008003be8                TIM4_IRQHandler
                0x0000000008003be8                DMA2_Channel1_IRQHandler
                0x0000000008003be8                QUADSPI_IRQHandler
                0x0000000008003be8                I2C1_EV_IRQHandler
                0x0000000008003be8                DMA1_Channel6_IRQHandler
                0x0000000008003be8                UART4_IRQHandler
                0x0000000008003be8                DMA2_Channel4_IRQHandler
                0x0000000008003be8                TIM3_IRQHandler
                0x0000000008003be8                RCC_IRQHandler
                0x0000000008003be8                DMA1_Channel1_IRQHandler
                0x0000000008003be8                Default_Handler
                0x0000000008003be8                DMA2_Channel7_IRQHandler
                0x0000000008003be8                EXTI15_10_IRQHandler
                0x0000000008003be8                TIM7_IRQHandler
                0x0000000008003be8                SDMMC1_IRQHandler
                0x0000000008003be8                TIM5_IRQHandler
                0x0000000008003be8                I2C3_EV_IRQHandler
                0x0000000008003be8                EXTI9_5_IRQHandler
                0x0000000008003be8                RTC_WKUP_IRQHandler
                0x0000000008003be8                PVD_PVM_IRQHandler
                0x0000000008003be8                SPI2_IRQHandler
                0x0000000008003be8                MemManage_Handler
                0x0000000008003be8                CAN1_TX_IRQHandler
                0x0000000008003be8                DMA2_Channel5_IRQHandler
                0x0000000008003be8                DMA1_Channel5_IRQHandler
                0x0000000008003be8                EXTI4_IRQHandler
                0x0000000008003be8                RNG_IRQHandler
                0x0000000008003be8                TIM1_TRG_COM_TIM17_IRQHandler
                0x0000000008003be8                DMA1_Channel3_IRQHandler
                0x0000000008003be8                COMP_IRQHandler
                0x0000000008003be8                WWDG_IRQHandler
                0x0000000008003be8                LPUART1_IRQHandler
                0x0000000008003be8                DMA2_Channel6_IRQHandler
                0x0000000008003be8                TIM2_IRQHandler
                0x0000000008003be8                EXTI1_IRQHandler
                0x0000000008003be8                USART2_IRQHandler
                0x0000000008003be8                DFSDM1_FLT0_IRQHandler
                0x0000000008003be8                I2C2_ER_IRQHandler
                0x0000000008003be8                DMA1_Channel2_IRQHandler
                0x0000000008003be8                TIM8_BRK_IRQHandler
                0x0000000008003be8                CAN1_SCE_IRQHandler
                0x0000000008003be8                FLASH_IRQHandler
                0x0000000008003be8                BusFault_Handler
                0x0000000008003be8                USART1_IRQHandler
                0x0000000008003be8                SPI3_IRQHandler
                0x0000000008003be8                I2C1_ER_IRQHandler
                0x0000000008003be8                FMC_IRQHandler
                0x0000000008003be8                SWPMI1_IRQHandler
                0x0000000008003be8                LPTIM1_IRQHandler
                0x0000000008003be8                SAI1_IRQHandler
                0x0000000008003be8                DMA2_Channel3_IRQHandler
                0x0000000008003be8                TIM1_BRK_TIM15_IRQHandler
 *fill*         0x0000000008003bea        0x2 
 .text.exit     0x0000000008003bec       0x28 /home/brian/Ac6/SystemWorkbench/plugins/fr.ac6.mcu.externaltools.arm-none.linux64_1.15.0.201708311556/tools/compiler/bin/../lib/gcc/arm-none-eabi/6.3.1/../../../../arm-none-eabi/lib/thumb/v7e-m/fpv4-sp/hard/libc_nano.a(lib_a-exit.o)
                0x0000000008003bec                exit
 .text.__libc_init_array
                0x0000000008003c14       0x48 /home/brian/Ac6/SystemWorkbench/plugins/fr.ac6.mcu.externaltools.arm-none.linux64_1.15.0.201708311556/tools/compiler/bin/../lib/gcc/arm-none-eabi/6.3.1/../../../../arm-none-eabi/lib/thumb/v7e-m/fpv4-sp/hard/libc_nano.a(lib_a-init.o)
                0x0000000008003c14                __libc_init_array
 .text._exit    0x0000000008003c5c        0x4 /home/brian/Ac6/SystemWorkbench/plugins/fr.ac6.mcu.externaltools.arm-none.linux64_1.15.0.201708311556/tools/compiler/bin/../lib/gcc/arm-none-eabi/6.3.1/../../../../arm-none-eabi/lib/thumb/v7e-m/fpv4-sp/hard/libnosys.a(_exit.o)
                0x0000000008003c5c                _exit
 *(.glue_7)
 .glue_7        0x0000000008003c60        0x0 linker stubs
 *(.glue_7t)
 .glue_7t       0x0000000008003c60        0x0 linker stubs
 *(.eh_frame)
 .eh_frame      0x0000000008003c60        0x0 /home/brian/Ac6/SystemWorkbench/plugins/fr.ac6.mcu.externaltools.arm-none.linux64_1.15.0.201708311556/tools/compiler/bin/../lib/gcc/arm-none-eabi/6.3.1/thumb/v7e-m/fpv4-sp/hard/crtbegin.o
 *(.init)
 .init          0x0000000008003c60        0x4 /home/brian/Ac6/SystemWorkbench/plugins/fr.ac6.mcu.externaltools.arm-none.linux64_1.15.0.201708311556/tools/compiler/bin/../lib/gcc/arm-none-eabi/6.3.1/thumb/v7e-m/fpv4-sp/hard/crti.o
                0x0000000008003c60                _init
 .init          0x0000000008003c64        0x8 /home/brian/Ac6/SystemWorkbench/plugins/fr.ac6.mcu.externaltools.arm-none.linux64_1.15.0.201708311556/tools/compiler/bin/../lib/gcc/arm-none-eabi/6.3.1/thumb/v7e-m/fpv4-sp/hard/crtn.o
 *(.fini)
 .fini          0x0000000008003c6c        0x4 /home/brian/Ac6/SystemWorkbench/plugins/fr.ac6.mcu.externaltools.arm-none.linux64_1.15.0.201708311556/tools/compiler/bin/../lib/gcc/arm-none-eabi/6.3.1/thumb/v7e-m/fpv4-sp/hard/crti.o
                0x0000000008003c6c                _fini
 .fini          0x0000000008003c70        0x8 /home/brian/Ac6/SystemWorkbench/plugins/fr.ac6.mcu.externaltools.arm-none.linux64_1.15.0.201708311556/tools/compiler/bin/../lib/gcc/arm-none-eabi/6.3.1/thumb/v7e-m/fpv4-sp/hard/crtn.o
                0x0000000008003c78                . = ALIGN (0x8)
                0x0000000008003c78                _etext = .

.vfp11_veneer   0x0000000008003c78        0x0
 .vfp11_veneer  0x0000000008003c78        0x0 linker stubs

.v4_bx          0x0000000008003c78        0x0
 .v4_bx         0x0000000008003c78        0x0 linker stubs

.iplt           0x0000000008003c78        0x0
 .iplt          0x0000000008003c78        0x0 /home/brian/Ac6/SystemWorkbench/plugins/fr.ac6.mcu.externaltools.arm-none.linux64_1.15.0.201708311556/tools/compiler/bin/../lib/gcc/arm-none-eabi/6.3.1/thumb/v7e-m/fpv4-sp/hard/crtbegin.o

.rodata         0x0000000008003c78       0xc8
                0x0000000008003c78                . = ALIGN (0x8)
 *(.rodata)
 .rodata        0x0000000008003c78       0x48 Src/system_stm32l4xx.o
                0x0000000008003c78                MSIRangeTable
                0x0000000008003ca8                AHBPrescTable
                0x0000000008003cb8                APBPrescTable
 *(.rodata*)
 .rodata.str1.4
                0x0000000008003cc0        0xe Src/main.o
 *fill*         0x0000000008003cce        0x2 
 .rodata.str1.4
                0x0000000008003cd0       0x13 Src/usbd_conf.o
 *fill*         0x0000000008003ce3        0x1 
 .rodata.str1.4
                0x0000000008003ce4       0x58 Src/usbd_desc.o
                                         0x56 (size before relaxing)
 .rodata._global_impure_ptr
                0x0000000008003d3c        0x4 /home/brian/Ac6/SystemWorkbench/plugins/fr.ac6.mcu.externaltools.arm-none.linux64_1.15.0.201708311556/tools/compiler/bin/../lib/gcc/arm-none-eabi/6.3.1/../../../../arm-none-eabi/lib/thumb/v7e-m/fpv4-sp/hard/libc_nano.a(lib_a-impure.o)
                0x0000000008003d3c                _global_impure_ptr
                0x0000000008003d40                . = ALIGN (0x8)

.rel.dyn        0x0000000008003d40        0x0
 .rel.iplt      0x0000000008003d40        0x0 /home/brian/Ac6/SystemWorkbench/plugins/fr.ac6.mcu.externaltools.arm-none.linux64_1.15.0.201708311556/tools/compiler/bin/../lib/gcc/arm-none-eabi/6.3.1/thumb/v7e-m/fpv4-sp/hard/crtbegin.o

.ARM.extab      0x0000000008003d40        0x0
                0x0000000008003d40                . = ALIGN (0x8)
 *(.ARM.extab* .gnu.linkonce.armextab.*)
                0x0000000008003d40                . = ALIGN (0x8)

.ARM            0x0000000008003d40        0x0
                0x0000000008003d40                . = ALIGN (0x8)
                0x0000000008003d40                __exidx_start = .
 *(.ARM.exidx*)
                0x0000000008003d40                __exidx_end = .
                0x0000000008003d40                . = ALIGN (0x8)

.preinit_array  0x0000000008003d40        0x0
                0x0000000008003d40                . = ALIGN (0x8)
                0x0000000008003d40                PROVIDE (__preinit_array_start, .)
 *(.preinit_array*)
                0x0000000008003d40                PROVIDE (__preinit_array_end, .)
                0x0000000008003d40                . = ALIGN (0x8)

.init_array     0x0000000008003d40        0x8
                0x0000000008003d40                . = ALIGN (0x8)
                0x0000000008003d40                PROVIDE (__init_array_start, .)
 *(SORT(.init_array.*))
 *(.init_array*)
 .init_array    0x0000000008003d40        0x4 /home/brian/Ac6/SystemWorkbench/plugins/fr.ac6.mcu.externaltools.arm-none.linux64_1.15.0.201708311556/tools/compiler/bin/../lib/gcc/arm-none-eabi/6.3.1/thumb/v7e-m/fpv4-sp/hard/crtbegin.o
                0x0000000008003d44                PROVIDE (__init_array_end, .)
                0x0000000008003d48                . = ALIGN (0x8)
 *fill*         0x0000000008003d44        0x4 

.fini_array     0x0000000008003d48        0x8
                0x0000000008003d48                . = ALIGN (0x8)
                [!provide]                        PROVIDE (__fini_array_start, .)
 *(SORT(.fini_array.*))
 *(.fini_array*)
 .fini_array    0x0000000008003d48        0x4 /home/brian/Ac6/SystemWorkbench/plugins/fr.ac6.mcu.externaltools.arm-none.linux64_1.15.0.201708311556/tools/compiler/bin/../lib/gcc/arm-none-eabi/6.3.1/thumb/v7e-m/fpv4-sp/hard/crtbegin.o
                [!provide]                        PROVIDE (__fini_array_end, .)
                0x0000000008003d50                . = ALIGN (0x8)
 *fill*         0x0000000008003d4c        0x4 
                0x0000000008003d50                _sidata = LOADADDR (.data)

.data           0x0000000020000000      0x180 load address 0x0000000008003d50
                0x0000000020000000                . = ALIGN (0x8)
                0x0000000020000000                _sdata = .
 *(.data)
 .data          0x0000000020000000       0x94 Middlewares/ST/STM32_USB_Device_Library/Class/HID/Src/usbd_hid.o
                0x000000002000005c                USBD_HID
 .data          0x0000000020000094       0x40 Src/main.o
                0x0000000020000094                y_sweep
                0x0000000020000098                usb_hid_transmit_buffer
 .data          0x00000000200000d4        0x4 Src/system_stm32l4xx.o
                0x00000000200000d4                SystemCoreClock
 .data          0x00000000200000d8       0x44 Src/usbd_desc.o
                0x00000000200000d8                USBD_FS_DeviceDesc
                0x00000000200000ec                USBD_LangIDDesc
                0x00000000200000f0                USBD_FS_BOSDesc
                0x00000000200000fc                FS_Desc
 *(.data*)
 .data.impure_data
                0x000000002000011c       0x60 /home/brian/Ac6/SystemWorkbench/plugins/fr.ac6.mcu.externaltools.arm-none.linux64_1.15.0.201708311556/tools/compiler/bin/../lib/gcc/arm-none-eabi/6.3.1/../../../../arm-none-eabi/lib/thumb/v7e-m/fpv4-sp/hard/libc_nano.a(lib_a-impure.o)
                0x0000000020000180                . = ALIGN (0x8)
 *fill*         0x000000002000017c        0x4 
                0x0000000020000180                _edata = .

.jcr            0x0000000020000180        0x0 load address 0x0000000008003ed0
 .jcr           0x0000000020000180        0x0 /home/brian/Ac6/SystemWorkbench/plugins/fr.ac6.mcu.externaltools.arm-none.linux64_1.15.0.201708311556/tools/compiler/bin/../lib/gcc/arm-none-eabi/6.3.1/thumb/v7e-m/fpv4-sp/hard/crtbegin.o

.igot.plt       0x0000000020000180        0x0 load address 0x0000000008003ed0
 .igot.plt      0x0000000020000180        0x0 /home/brian/Ac6/SystemWorkbench/plugins/fr.ac6.mcu.externaltools.arm-none.linux64_1.15.0.201708311556/tools/compiler/bin/../lib/gcc/arm-none-eabi/6.3.1/thumb/v7e-m/fpv4-sp/hard/crtbegin.o
                0x0000000020000180                . = ALIGN (0x4)

.bss            0x0000000020000180      0x8a8 load address 0x0000000008003ed0
                0x0000000020000180                _sbss = .
                0x0000000020000180                __bss_start__ = _sbss
 *(.bss)
 .bss           0x0000000020000180       0x1c /home/brian/Ac6/SystemWorkbench/plugins/fr.ac6.mcu.externaltools.arm-none.linux64_1.15.0.201708311556/tools/compiler/bin/../lib/gcc/arm-none-eabi/6.3.1/thumb/v7e-m/fpv4-sp/hard/crtbegin.o
 .bss           0x000000002000019c        0x8 Middlewares/ST/STM32_USB_Device_Library/Class/HID/Src/usbd_hid.o
                0x000000002000019c                fail_counter1
                0x00000000200001a0                fail_counter2
 .bss           0x00000000200001a4        0x1 Middlewares/ST/STM32_USB_Device_Library/Core/Src/usbd_ctlreq.o
 *fill*         0x00000000200001a5        0x3 
 .bss           0x00000000200001a8       0x21 Src/main.o
                0x00000000200001a8                last_tick_sr
                0x00000000200001ac                hid_buffer
                0x00000000200001b0                x_sweep
                0x00000000200001b4                last_tick_ud
                0x00000000200001b8                data_sent
                0x00000000200001bc                sample_send_fail
                0x00000000200001c0                counterrr
                0x00000000200001c4                counter_new_data_fail
                0x00000000200001c8                new_data
 *fill*         0x00000000200001c9        0x3 
 .bss           0x00000000200001cc       0x14 Src/usbd_conf.o
 *(.bss*)
 *(COMMON)
 COMMON         0x00000000200001e0        0x4 Drivers/STM32L4xx_HAL_Driver/Src/stm32l4xx_hal.o
                0x00000000200001e0                uwTick
 COMMON         0x00000000200001e4        0x8 Middlewares/ST/STM32_USB_Device_Library/Class/HID/Src/usbd_hid.o
                0x00000000200001e4                donut
                0x00000000200001e8                spudnut
 COMMON         0x00000000200001ec       0x44 Src/main.o
                0x00000000200001ec                usb_hid_tx_buf
                0x000000002000022c                time
 COMMON         0x0000000020000230        0x8 Src/stm32l4xx_it.o
                0x0000000020000230                black
                0x0000000020000234                jack
 COMMON         0x0000000020000238      0x224 Src/usb_device.o
                0x0000000020000238                hUsbDeviceFS
 COMMON         0x000000002000045c      0x3cc Src/usbd_conf.o
                0x000000002000045c                hpcd_USB_OTG_FS
 COMMON         0x0000000020000828      0x200 Src/usbd_desc.o
                0x0000000020000828                USBD_StrDesc
                0x0000000020000a28                . = ALIGN (0x4)
                0x0000000020000a28                _ebss = .
                0x0000000020000a28                __bss_end__ = _ebss

._user_heap_stack
                0x0000000020000a28     0x6000 load address 0x0000000008003ed0
                0x0000000020000a28                . = ALIGN (0x8)
                [!provide]                        PROVIDE (end, .)
                [!provide]                        PROVIDE (_end, .)
                0x0000000020002a28                . = (. + _Min_Heap_Size)
 *fill*         0x0000000020000a28     0x2000 
                0x0000000020006a28                . = (. + _Min_Stack_Size)
 *fill*         0x0000000020002a28     0x4000 
                0x0000000020006a28                . = ALIGN (0x8)

/DISCARD/
 libc.a(*)
 libm.a(*)
 libgcc.a(*)

.ARM.attributes
                0x0000000000000000       0x30
 *(.ARM.attributes)
 .ARM.attributes
                0x0000000000000000       0x22 /home/brian/Ac6/SystemWorkbench/plugins/fr.ac6.mcu.externaltools.arm-none.linux64_1.15.0.201708311556/tools/compiler/bin/../lib/gcc/arm-none-eabi/6.3.1/thumb/v7e-m/fpv4-sp/hard/crti.o
 .ARM.attributes
                0x0000000000000022       0x34 /home/brian/Ac6/SystemWorkbench/plugins/fr.ac6.mcu.externaltools.arm-none.linux64_1.15.0.201708311556/tools/compiler/bin/../lib/gcc/arm-none-eabi/6.3.1/thumb/v7e-m/fpv4-sp/hard/crtbegin.o
 .ARM.attributes
                0x0000000000000056       0x39 Drivers/STM32L4xx_HAL_Driver/Src/stm32l4xx_hal.o
 .ARM.attributes
                0x000000000000008f       0x39 Drivers/STM32L4xx_HAL_Driver/Src/stm32l4xx_hal_cortex.o
 .ARM.attributes
                0x00000000000000c8       0x39 Drivers/STM32L4xx_HAL_Driver/Src/stm32l4xx_hal_gpio.o
 .ARM.attributes
                0x0000000000000101       0x39 Drivers/STM32L4xx_HAL_Driver/Src/stm32l4xx_hal_pcd.o
 .ARM.attributes
                0x000000000000013a       0x39 Drivers/STM32L4xx_HAL_Driver/Src/stm32l4xx_hal_pcd_ex.o
 .ARM.attributes
                0x0000000000000173       0x39 Drivers/STM32L4xx_HAL_Driver/Src/stm32l4xx_hal_pwr_ex.o
 .ARM.attributes
                0x00000000000001ac       0x39 Drivers/STM32L4xx_HAL_Driver/Src/stm32l4xx_hal_rcc.o
 .ARM.attributes
                0x00000000000001e5       0x39 Drivers/STM32L4xx_HAL_Driver/Src/stm32l4xx_hal_rcc_ex.o
 .ARM.attributes
                0x000000000000021e       0x39 Drivers/STM32L4xx_HAL_Driver/Src/stm32l4xx_ll_usb.o
 .ARM.attributes
                0x0000000000000257       0x39 Middlewares/ST/STM32_USB_Device_Library/Class/HID/Src/usbd_hid.o
 .ARM.attributes
                0x0000000000000290       0x39 Middlewares/ST/STM32_USB_Device_Library/Core/Src/usbd_core.o
 .ARM.attributes
                0x00000000000002c9       0x39 Middlewares/ST/STM32_USB_Device_Library/Core/Src/usbd_ctlreq.o
 .ARM.attributes
                0x0000000000000302       0x39 Middlewares/ST/STM32_USB_Device_Library/Core/Src/usbd_ioreq.o
 .ARM.attributes
                0x000000000000033b       0x39 Src/main.o
 .ARM.attributes
                0x0000000000000374       0x39 Src/stm32l4xx_hal_msp.o
 .ARM.attributes
                0x00000000000003ad       0x39 Src/stm32l4xx_it.o
 .ARM.attributes
                0x00000000000003e6       0x39 Src/system_stm32l4xx.o
 .ARM.attributes
                0x000000000000041f       0x39 Src/usb_device.o
 .ARM.attributes
                0x0000000000000458       0x39 Src/usbd_conf.o
 .ARM.attributes
                0x0000000000000491       0x39 Src/usbd_desc.o
 .ARM.attributes
                0x00000000000004ca       0x21 startup/startup_stm32l476xx.o
 .ARM.attributes
                0x00000000000004eb       0x34 /home/brian/Ac6/SystemWorkbench/plugins/fr.ac6.mcu.externaltools.arm-none.linux64_1.15.0.201708311556/tools/compiler/bin/../lib/gcc/arm-none-eabi/6.3.1/../../../../arm-none-eabi/lib/thumb/v7e-m/fpv4-sp/hard/libc_nano.a(lib_a-exit.o)
 .ARM.attributes
                0x000000000000051f       0x34 /home/brian/Ac6/SystemWorkbench/plugins/fr.ac6.mcu.externaltools.arm-none.linux64_1.15.0.201708311556/tools/compiler/bin/../lib/gcc/arm-none-eabi/6.3.1/../../../../arm-none-eabi/lib/thumb/v7e-m/fpv4-sp/hard/libc_nano.a(lib_a-impure.o)
 .ARM.attributes
                0x0000000000000553       0x34 /home/brian/Ac6/SystemWorkbench/plugins/fr.ac6.mcu.externaltools.arm-none.linux64_1.15.0.201708311556/tools/compiler/bin/../lib/gcc/arm-none-eabi/6.3.1/../../../../arm-none-eabi/lib/thumb/v7e-m/fpv4-sp/hard/libc_nano.a(lib_a-init.o)
 .ARM.attributes
                0x0000000000000587       0x34 /home/brian/Ac6/SystemWorkbench/plugins/fr.ac6.mcu.externaltools.arm-none.linux64_1.15.0.201708311556/tools/compiler/bin/../lib/gcc/arm-none-eabi/6.3.1/../../../../arm-none-eabi/lib/thumb/v7e-m/fpv4-sp/hard/libnosys.a(_exit.o)
 .ARM.attributes
                0x00000000000005bb       0x22 /home/brian/Ac6/SystemWorkbench/plugins/fr.ac6.mcu.externaltools.arm-none.linux64_1.15.0.201708311556/tools/compiler/bin/../lib/gcc/arm-none-eabi/6.3.1/thumb/v7e-m/fpv4-sp/hard/crtn.o
OUTPUT(USB_HID_l476RG.elf elf32-littlearm)

.debug_info     0x0000000000000000    0x1abc6
 .debug_info    0x0000000000000000     0x1427 Drivers/STM32L4xx_HAL_Driver/Src/stm32l4xx_hal.o
 .debug_info    0x0000000000001427     0x1709 Drivers/STM32L4xx_HAL_Driver/Src/stm32l4xx_hal_cortex.o
 .debug_info    0x0000000000002b30     0x1090 Drivers/STM32L4xx_HAL_Driver/Src/stm32l4xx_hal_gpio.o
 .debug_info    0x0000000000003bc0     0x1ebf Drivers/STM32L4xx_HAL_Driver/Src/stm32l4xx_hal_pcd.o
 .debug_info    0x0000000000005a7f     0x1316 Drivers/STM32L4xx_HAL_Driver/Src/stm32l4xx_hal_pcd_ex.o
 .debug_info    0x0000000000006d95     0x12cd Drivers/STM32L4xx_HAL_Driver/Src/stm32l4xx_hal_pwr_ex.o
 .debug_info    0x0000000000008062     0x15a7 Drivers/STM32L4xx_HAL_Driver/Src/stm32l4xx_hal_rcc.o
 .debug_info    0x0000000000009609     0x18da Drivers/STM32L4xx_HAL_Driver/Src/stm32l4xx_hal_rcc_ex.o
 .debug_info    0x000000000000aee3     0x1f7c Drivers/STM32L4xx_HAL_Driver/Src/stm32l4xx_ll_usb.o
 .debug_info    0x000000000000ce5f     0x1247 Middlewares/ST/STM32_USB_Device_Library/Class/HID/Src/usbd_hid.o
 .debug_info    0x000000000000e0a6     0x14c1 Middlewares/ST/STM32_USB_Device_Library/Core/Src/usbd_core.o
 .debug_info    0x000000000000f567     0x16a7 Middlewares/ST/STM32_USB_Device_Library/Core/Src/usbd_ctlreq.o
 .debug_info    0x0000000000010c0e     0x100a Middlewares/ST/STM32_USB_Device_Library/Core/Src/usbd_ioreq.o
 .debug_info    0x0000000000011c18     0x1b4a Src/main.o
 .debug_info    0x0000000000013762      0xee0 Src/stm32l4xx_hal_msp.o
 .debug_info    0x0000000000014642      0xef7 Src/stm32l4xx_it.o
 .debug_info    0x0000000000015539      0xde9 Src/system_stm32l4xx.o
 .debug_info    0x0000000000016322     0x13a6 Src/usb_device.o
 .debug_info    0x00000000000176c8     0x2695 Src/usbd_conf.o
 .debug_info    0x0000000000019d5d      0xdea Src/usbd_desc.o
 .debug_info    0x000000000001ab47       0x7f startup/startup_stm32l476xx.o

.debug_abbrev   0x0000000000000000     0x37df
 .debug_abbrev  0x0000000000000000      0x2ec Drivers/STM32L4xx_HAL_Driver/Src/stm32l4xx_hal.o
 .debug_abbrev  0x00000000000002ec      0x3b8 Drivers/STM32L4xx_HAL_Driver/Src/stm32l4xx_hal_cortex.o
 .debug_abbrev  0x00000000000006a4      0x2a5 Drivers/STM32L4xx_HAL_Driver/Src/stm32l4xx_hal_gpio.o
 .debug_abbrev  0x0000000000000949      0x31e Drivers/STM32L4xx_HAL_Driver/Src/stm32l4xx_hal_pcd.o
 .debug_abbrev  0x0000000000000c67      0x2fe Drivers/STM32L4xx_HAL_Driver/Src/stm32l4xx_hal_pcd_ex.o
 .debug_abbrev  0x0000000000000f65      0x2d2 Drivers/STM32L4xx_HAL_Driver/Src/stm32l4xx_hal_pwr_ex.o
 .debug_abbrev  0x0000000000001237      0x308 Drivers/STM32L4xx_HAL_Driver/Src/stm32l4xx_hal_rcc.o
 .debug_abbrev  0x000000000000153f      0x30a Drivers/STM32L4xx_HAL_Driver/Src/stm32l4xx_hal_rcc_ex.o
 .debug_abbrev  0x0000000000001849      0x304 Drivers/STM32L4xx_HAL_Driver/Src/stm32l4xx_ll_usb.o
 .debug_abbrev  0x0000000000001b4d      0x2bf Middlewares/ST/STM32_USB_Device_Library/Class/HID/Src/usbd_hid.o
 .debug_abbrev  0x0000000000001e0c      0x2c6 Middlewares/ST/STM32_USB_Device_Library/Core/Src/usbd_core.o
 .debug_abbrev  0x00000000000020d2      0x327 Middlewares/ST/STM32_USB_Device_Library/Core/Src/usbd_ctlreq.o
 .debug_abbrev  0x00000000000023f9      0x213 Middlewares/ST/STM32_USB_Device_Library/Core/Src/usbd_ioreq.o
 .debug_abbrev  0x000000000000260c      0x2f7 Src/main.o
 .debug_abbrev  0x0000000000002903      0x232 Src/stm32l4xx_hal_msp.o
 .debug_abbrev  0x0000000000002b35      0x239 Src/stm32l4xx_it.o
 .debug_abbrev  0x0000000000002d6e      0x226 Src/system_stm32l4xx.o
 .debug_abbrev  0x0000000000002f94      0x270 Src/usb_device.o
 .debug_abbrev  0x0000000000003204      0x348 Src/usbd_conf.o
 .debug_abbrev  0x000000000000354c      0x281 Src/usbd_desc.o
 .debug_abbrev  0x00000000000037cd       0x12 startup/startup_stm32l476xx.o

.debug_loc      0x0000000000000000     0x83d8
 .debug_loc     0x0000000000000000       0xf8 Drivers/STM32L4xx_HAL_Driver/Src/stm32l4xx_hal.o
 .debug_loc     0x00000000000000f8      0x5ad Drivers/STM32L4xx_HAL_Driver/Src/stm32l4xx_hal_cortex.o
 .debug_loc     0x00000000000006a5      0x33d Drivers/STM32L4xx_HAL_Driver/Src/stm32l4xx_hal_gpio.o
 .debug_loc     0x00000000000009e2      0xd9b Drivers/STM32L4xx_HAL_Driver/Src/stm32l4xx_hal_pcd.o
 .debug_loc     0x000000000000177d      0x18d Drivers/STM32L4xx_HAL_Driver/Src/stm32l4xx_hal_pcd_ex.o
 .debug_loc     0x000000000000190a      0x8f5 Drivers/STM32L4xx_HAL_Driver/Src/stm32l4xx_hal_pwr_ex.o
 .debug_loc     0x00000000000021ff      0x5d8 Drivers/STM32L4xx_HAL_Driver/Src/stm32l4xx_hal_rcc.o
 .debug_loc     0x00000000000027d7     0x1aed Drivers/STM32L4xx_HAL_Driver/Src/stm32l4xx_hal_rcc_ex.o
 .debug_loc     0x00000000000042c4     0x14ba Drivers/STM32L4xx_HAL_Driver/Src/stm32l4xx_ll_usb.o
 .debug_loc     0x000000000000577e      0x4fc Middlewares/ST/STM32_USB_Device_Library/Class/HID/Src/usbd_hid.o
 .debug_loc     0x0000000000005c7a      0x71c Middlewares/ST/STM32_USB_Device_Library/Core/Src/usbd_core.o
 .debug_loc     0x0000000000006396      0xb99 Middlewares/ST/STM32_USB_Device_Library/Core/Src/usbd_ctlreq.o
 .debug_loc     0x0000000000006f2f      0x23c Middlewares/ST/STM32_USB_Device_Library/Core/Src/usbd_ioreq.o
 .debug_loc     0x000000000000716b       0x53 Src/main.o
 .debug_loc     0x00000000000071be      0x1e4 Src/system_stm32l4xx.o
 .debug_loc     0x00000000000073a2       0x3f Src/usb_device.o
 .debug_loc     0x00000000000073e1      0xd1f Src/usbd_conf.o
 .debug_loc     0x0000000000008100      0x2d8 Src/usbd_desc.o

.debug_aranges  0x0000000000000000      0xc30
 .debug_aranges
                0x0000000000000000      0x118 Drivers/STM32L4xx_HAL_Driver/Src/stm32l4xx_hal.o
 .debug_aranges
                0x0000000000000118       0x98 Drivers/STM32L4xx_HAL_Driver/Src/stm32l4xx_hal_cortex.o
 .debug_aranges
                0x00000000000001b0       0x58 Drivers/STM32L4xx_HAL_Driver/Src/stm32l4xx_hal_gpio.o
 .debug_aranges
                0x0000000000000208      0x120 Drivers/STM32L4xx_HAL_Driver/Src/stm32l4xx_hal_pcd.o
 .debug_aranges
                0x0000000000000328       0x60 Drivers/STM32L4xx_HAL_Driver/Src/stm32l4xx_hal_pcd_ex.o
 .debug_aranges
                0x0000000000000388      0x148 Drivers/STM32L4xx_HAL_Driver/Src/stm32l4xx_hal_pwr_ex.o
 .debug_aranges
                0x00000000000004d0       0x88 Drivers/STM32L4xx_HAL_Driver/Src/stm32l4xx_hal_rcc.o
 .debug_aranges
                0x0000000000000558       0xb8 Drivers/STM32L4xx_HAL_Driver/Src/stm32l4xx_hal_rcc_ex.o
 .debug_aranges
                0x0000000000000610      0x190 Drivers/STM32L4xx_HAL_Driver/Src/stm32l4xx_ll_usb.o
 .debug_aranges
                0x00000000000007a0       0x58 Middlewares/ST/STM32_USB_Device_Library/Class/HID/Src/usbd_hid.o
 .debug_aranges
                0x00000000000007f8       0xb8 Middlewares/ST/STM32_USB_Device_Library/Core/Src/usbd_core.o
 .debug_aranges
                0x00000000000008b0       0x88 Middlewares/ST/STM32_USB_Device_Library/Core/Src/usbd_ctlreq.o
 .debug_aranges
                0x0000000000000938       0x50 Middlewares/ST/STM32_USB_Device_Library/Core/Src/usbd_ioreq.o
 .debug_aranges
                0x0000000000000988       0x50 Src/main.o
 .debug_aranges
                0x00000000000009d8       0x20 Src/stm32l4xx_hal_msp.o
 .debug_aranges
                0x00000000000009f8       0x38 Src/stm32l4xx_it.o
 .debug_aranges
                0x0000000000000a30       0x28 Src/system_stm32l4xx.o
 .debug_aranges
                0x0000000000000a58       0x28 Src/usb_device.o
 .debug_aranges
                0x0000000000000a80      0x130 Src/usbd_conf.o
 .debug_aranges
                0x0000000000000bb0       0x58 Src/usbd_desc.o
 .debug_aranges
                0x0000000000000c08       0x28 startup/startup_stm32l476xx.o

.debug_ranges   0x0000000000000000      0xb80
 .debug_ranges  0x0000000000000000      0x108 Drivers/STM32L4xx_HAL_Driver/Src/stm32l4xx_hal.o
 .debug_ranges  0x0000000000000108       0xe8 Drivers/STM32L4xx_HAL_Driver/Src/stm32l4xx_hal_cortex.o
 .debug_ranges  0x00000000000001f0       0x48 Drivers/STM32L4xx_HAL_Driver/Src/stm32l4xx_hal_gpio.o
 .debug_ranges  0x0000000000000238      0x110 Drivers/STM32L4xx_HAL_Driver/Src/stm32l4xx_hal_pcd.o
 .debug_ranges  0x0000000000000348       0x50 Drivers/STM32L4xx_HAL_Driver/Src/stm32l4xx_hal_pcd_ex.o
 .debug_ranges  0x0000000000000398      0x138 Drivers/STM32L4xx_HAL_Driver/Src/stm32l4xx_hal_pwr_ex.o
 .debug_ranges  0x00000000000004d0       0x90 Drivers/STM32L4xx_HAL_Driver/Src/stm32l4xx_hal_rcc.o
 .debug_ranges  0x0000000000000560       0xc8 Drivers/STM32L4xx_HAL_Driver/Src/stm32l4xx_hal_rcc_ex.o
 .debug_ranges  0x0000000000000628      0x180 Drivers/STM32L4xx_HAL_Driver/Src/stm32l4xx_ll_usb.o
 .debug_ranges  0x00000000000007a8       0x48 Middlewares/ST/STM32_USB_Device_Library/Class/HID/Src/usbd_hid.o
 .debug_ranges  0x00000000000007f0       0xa8 Middlewares/ST/STM32_USB_Device_Library/Core/Src/usbd_core.o
 .debug_ranges  0x0000000000000898       0x78 Middlewares/ST/STM32_USB_Device_Library/Core/Src/usbd_ctlreq.o
 .debug_ranges  0x0000000000000910       0x40 Middlewares/ST/STM32_USB_Device_Library/Core/Src/usbd_ioreq.o
 .debug_ranges  0x0000000000000950       0x40 Src/main.o
 .debug_ranges  0x0000000000000990       0x10 Src/stm32l4xx_hal_msp.o
 .debug_ranges  0x00000000000009a0       0x28 Src/stm32l4xx_it.o
 .debug_ranges  0x00000000000009c8       0x18 Src/system_stm32l4xx.o
 .debug_ranges  0x00000000000009e0       0x18 Src/usb_device.o
 .debug_ranges  0x00000000000009f8      0x120 Src/usbd_conf.o
 .debug_ranges  0x0000000000000b18       0x48 Src/usbd_desc.o
 .debug_ranges  0x0000000000000b60       0x20 startup/startup_stm32l476xx.o

.debug_macro    0x0000000000000000    0x282ea
 .debug_macro   0x0000000000000000      0x378 Drivers/STM32L4xx_HAL_Driver/Src/stm32l4xx_hal.o
 .debug_macro   0x0000000000000378      0x8bc Drivers/STM32L4xx_HAL_Driver/Src/stm32l4xx_hal.o
 .debug_macro   0x0000000000000c34       0x1c Drivers/STM32L4xx_HAL_Driver/Src/stm32l4xx_hal.o
 .debug_macro   0x0000000000000c50       0xae Drivers/STM32L4xx_HAL_Driver/Src/stm32l4xx_hal.o
 .debug_macro   0x0000000000000cfe       0x2e Drivers/STM32L4xx_HAL_Driver/Src/stm32l4xx_hal.o
 .debug_macro   0x0000000000000d2c       0x28 Drivers/STM32L4xx_HAL_Driver/Src/stm32l4xx_hal.o
 .debug_macro   0x0000000000000d54       0x22 Drivers/STM32L4xx_HAL_Driver/Src/stm32l4xx_hal.o
 .debug_macro   0x0000000000000d76       0x87 Drivers/STM32L4xx_HAL_Driver/Src/stm32l4xx_hal.o
 .debug_macro   0x0000000000000dfd       0x51 Drivers/STM32L4xx_HAL_Driver/Src/stm32l4xx_hal.o
 .debug_macro   0x0000000000000e4e       0xef Drivers/STM32L4xx_HAL_Driver/Src/stm32l4xx_hal.o
 .debug_macro   0x0000000000000f3d       0x6a Drivers/STM32L4xx_HAL_Driver/Src/stm32l4xx_hal.o
 .debug_macro   0x0000000000000fa7      0x1df Drivers/STM32L4xx_HAL_Driver/Src/stm32l4xx_hal.o
 .debug_macro   0x0000000000001186       0x35 Drivers/STM32L4xx_HAL_Driver/Src/stm32l4xx_hal.o
 .debug_macro   0x00000000000011bb       0x50 Drivers/STM32L4xx_HAL_Driver/Src/stm32l4xx_hal.o
 .debug_macro   0x000000000000120b      0xe66 Drivers/STM32L4xx_HAL_Driver/Src/stm32l4xx_hal.o
 .debug_macro   0x0000000000002071    0x1a1c4 Drivers/STM32L4xx_HAL_Driver/Src/stm32l4xx_hal.o
 .debug_macro   0x000000000001c235       0x43 Drivers/STM32L4xx_HAL_Driver/Src/stm32l4xx_hal.o
 .debug_macro   0x000000000001c278     0x36a8 Drivers/STM32L4xx_HAL_Driver/Src/stm32l4xx_hal.o
 .debug_macro   0x000000000001f920       0x58 Drivers/STM32L4xx_HAL_Driver/Src/stm32l4xx_hal.o
 .debug_macro   0x000000000001f978       0x35 Drivers/STM32L4xx_HAL_Driver/Src/stm32l4xx_hal.o
 .debug_macro   0x000000000001f9ad       0x9c Drivers/STM32L4xx_HAL_Driver/Src/stm32l4xx_hal.o
 .debug_macro   0x000000000001fa49       0x16 Drivers/STM32L4xx_HAL_Driver/Src/stm32l4xx_hal.o
 .debug_macro   0x000000000001fa5f       0x97 Drivers/STM32L4xx_HAL_Driver/Src/stm32l4xx_hal.o
 .debug_macro   0x000000000001faf6      0x330 Drivers/STM32L4xx_HAL_Driver/Src/stm32l4xx_hal.o
 .debug_macro   0x000000000001fe26       0xfd Drivers/STM32L4xx_HAL_Driver/Src/stm32l4xx_hal.o
 .debug_macro   0x000000000001ff23       0x10 Drivers/STM32L4xx_HAL_Driver/Src/stm32l4xx_hal.o
 .debug_macro   0x000000000001ff33       0x58 Drivers/STM32L4xx_HAL_Driver/Src/stm32l4xx_hal.o
 .debug_macro   0x000000000001ff8b       0x1f Drivers/STM32L4xx_HAL_Driver/Src/stm32l4xx_hal.o
 .debug_macro   0x000000000001ffaa       0x43 Drivers/STM32L4xx_HAL_Driver/Src/stm32l4xx_hal.o
 .debug_macro   0x000000000001ffed       0x20 Drivers/STM32L4xx_HAL_Driver/Src/stm32l4xx_hal.o
 .debug_macro   0x000000000002000d      0x187 Drivers/STM32L4xx_HAL_Driver/Src/stm32l4xx_hal.o
 .debug_macro   0x0000000000020194       0x10 Drivers/STM32L4xx_HAL_Driver/Src/stm32l4xx_hal.o
 .debug_macro   0x00000000000201a4       0x1c Drivers/STM32L4xx_HAL_Driver/Src/stm32l4xx_hal.o
 .debug_macro   0x00000000000201c0       0x52 Drivers/STM32L4xx_HAL_Driver/Src/stm32l4xx_hal.o
 .debug_macro   0x0000000000020212       0x40 Drivers/STM32L4xx_HAL_Driver/Src/stm32l4xx_hal.o
 .debug_macro   0x0000000000020252       0x10 Drivers/STM32L4xx_HAL_Driver/Src/stm32l4xx_hal.o
 .debug_macro   0x0000000000020262       0x40 Drivers/STM32L4xx_HAL_Driver/Src/stm32l4xx_hal.o
 .debug_macro   0x00000000000202a2       0xd7 Drivers/STM32L4xx_HAL_Driver/Src/stm32l4xx_hal.o
 .debug_macro   0x0000000000020379       0x16 Drivers/STM32L4xx_HAL_Driver/Src/stm32l4xx_hal.o
 .debug_macro   0x000000000002038f      0x18b Drivers/STM32L4xx_HAL_Driver/Src/stm32l4xx_hal.o
 .debug_macro   0x000000000002051a       0x50 Drivers/STM32L4xx_HAL_Driver/Src/stm32l4xx_hal.o
 .debug_macro   0x000000000002056a     0x1566 Drivers/STM32L4xx_HAL_Driver/Src/stm32l4xx_hal.o
 .debug_macro   0x0000000000021ad0      0x59e Drivers/STM32L4xx_HAL_Driver/Src/stm32l4xx_hal.o
 .debug_macro   0x000000000002206e      0x148 Drivers/STM32L4xx_HAL_Driver/Src/stm32l4xx_hal.o
 .debug_macro   0x00000000000221b6      0x18b Drivers/STM32L4xx_HAL_Driver/Src/stm32l4xx_hal.o
 .debug_macro   0x0000000000022341      0x26b Drivers/STM32L4xx_HAL_Driver/Src/stm32l4xx_hal.o
 .debug_macro   0x00000000000225ac      0x23a Drivers/STM32L4xx_HAL_Driver/Src/stm32l4xx_hal.o
 .debug_macro   0x00000000000227e6      0x367 Drivers/STM32L4xx_HAL_Driver/Src/stm32l4xx_hal.o
 .debug_macro   0x0000000000022b4d       0x10 Drivers/STM32L4xx_HAL_Driver/Src/stm32l4xx_hal.o
 .debug_macro   0x0000000000022b5d       0xe4 Drivers/STM32L4xx_HAL_Driver/Src/stm32l4xx_hal.o
 .debug_macro   0x0000000000022c41      0x202 Drivers/STM32L4xx_HAL_Driver/Src/stm32l4xx_hal.o
 .debug_macro   0x0000000000022e43       0x61 Drivers/STM32L4xx_HAL_Driver/Src/stm32l4xx_hal.o
 .debug_macro   0x0000000000022ea4       0x90 Drivers/STM32L4xx_HAL_Driver/Src/stm32l4xx_hal.o
 .debug_macro   0x0000000000022f34      0x126 Drivers/STM32L4xx_HAL_Driver/Src/stm32l4xx_hal.o
 .debug_macro   0x000000000002305a      0x3db Drivers/STM32L4xx_HAL_Driver/Src/stm32l4xx_hal.o
 .debug_macro   0x0000000000023435      0x1d1 Drivers/STM32L4xx_HAL_Driver/Src/stm32l4xx_hal.o
 .debug_macro   0x0000000000023606       0xa5 Drivers/STM32L4xx_HAL_Driver/Src/stm32l4xx_hal.o
 .debug_macro   0x00000000000236ab      0x325 Drivers/STM32L4xx_HAL_Driver/Src/stm32l4xx_hal.o
 .debug_macro   0x00000000000239d0      0x32a Drivers/STM32L4xx_HAL_Driver/Src/stm32l4xx_hal_cortex.o
 .debug_macro   0x0000000000023cfa      0x369 Drivers/STM32L4xx_HAL_Driver/Src/stm32l4xx_hal_gpio.o
 .debug_macro   0x0000000000024063      0x342 Drivers/STM32L4xx_HAL_Driver/Src/stm32l4xx_hal_pcd.o
 .debug_macro   0x00000000000243a5      0x32a Drivers/STM32L4xx_HAL_Driver/Src/stm32l4xx_hal_pcd_ex.o
 .debug_macro   0x00000000000246cf      0x34e Drivers/STM32L4xx_HAL_Driver/Src/stm32l4xx_hal_pwr_ex.o
 .debug_macro   0x0000000000024a1d      0x36c Drivers/STM32L4xx_HAL_Driver/Src/stm32l4xx_hal_rcc.o
 .debug_macro   0x0000000000024d89      0x360 Drivers/STM32L4xx_HAL_Driver/Src/stm32l4xx_hal_rcc_ex.o
 .debug_macro   0x00000000000250e9      0x331 Drivers/STM32L4xx_HAL_Driver/Src/stm32l4xx_ll_usb.o
 .debug_macro   0x000000000002541a      0x3e9 Middlewares/ST/STM32_USB_Device_Library/Class/HID/Src/usbd_hid.o
 .debug_macro   0x0000000000025803       0x52 Middlewares/ST/STM32_USB_Device_Library/Class/HID/Src/usbd_hid.o
 .debug_macro   0x0000000000025855       0x8d Middlewares/ST/STM32_USB_Device_Library/Class/HID/Src/usbd_hid.o
 .debug_macro   0x00000000000258e2       0x57 Middlewares/ST/STM32_USB_Device_Library/Class/HID/Src/usbd_hid.o
 .debug_macro   0x0000000000025939       0x16 Middlewares/ST/STM32_USB_Device_Library/Class/HID/Src/usbd_hid.o
 .debug_macro   0x000000000002594f       0x35 Middlewares/ST/STM32_USB_Device_Library/Class/HID/Src/usbd_hid.o
 .debug_macro   0x0000000000025984       0x16 Middlewares/ST/STM32_USB_Device_Library/Class/HID/Src/usbd_hid.o
 .debug_macro   0x000000000002599a       0x29 Middlewares/ST/STM32_USB_Device_Library/Class/HID/Src/usbd_hid.o
 .debug_macro   0x00000000000259c3       0x16 Middlewares/ST/STM32_USB_Device_Library/Class/HID/Src/usbd_hid.o
 .debug_macro   0x00000000000259d9       0x65 Middlewares/ST/STM32_USB_Device_Library/Class/HID/Src/usbd_hid.o
 .debug_macro   0x0000000000025a3e      0x1c3 Middlewares/ST/STM32_USB_Device_Library/Class/HID/Src/usbd_hid.o
 .debug_macro   0x0000000000025c01       0x6a Middlewares/ST/STM32_USB_Device_Library/Class/HID/Src/usbd_hid.o
 .debug_macro   0x0000000000025c6b       0x22 Middlewares/ST/STM32_USB_Device_Library/Class/HID/Src/usbd_hid.o
 .debug_macro   0x0000000000025c8d      0x3b9 Middlewares/ST/STM32_USB_Device_Library/Core/Src/usbd_core.o
 .debug_macro   0x0000000000026046      0x1c9 Middlewares/ST/STM32_USB_Device_Library/Core/Src/usbd_core.o
 .debug_macro   0x000000000002620f      0x3c3 Middlewares/ST/STM32_USB_Device_Library/Core/Src/usbd_ctlreq.o
 .debug_macro   0x00000000000265d2      0x3bf Middlewares/ST/STM32_USB_Device_Library/Core/Src/usbd_ioreq.o
 .debug_macro   0x0000000000026991      0x401 Src/main.o
 .debug_macro   0x0000000000026d92      0x32a Src/stm32l4xx_hal_msp.o
 .debug_macro   0x00000000000270bc      0x334 Src/stm32l4xx_it.o
 .debug_macro   0x00000000000273f0      0x331 Src/system_stm32l4xx.o
 .debug_macro   0x0000000000027721      0x3f0 Src/usb_device.o
 .debug_macro   0x0000000000027b11      0x3dc Src/usbd_conf.o
 .debug_macro   0x0000000000027eed      0x3fd Src/usbd_desc.o

.debug_line     0x0000000000000000     0xd9b8
 .debug_line    0x0000000000000000      0xa8b Drivers/STM32L4xx_HAL_Driver/Src/stm32l4xx_hal.o
 .debug_line    0x0000000000000a8b      0xa23 Drivers/STM32L4xx_HAL_Driver/Src/stm32l4xx_hal_cortex.o
 .debug_line    0x00000000000014ae      0x9c4 Drivers/STM32L4xx_HAL_Driver/Src/stm32l4xx_hal_gpio.o
 .debug_line    0x0000000000001e72      0xd7c Drivers/STM32L4xx_HAL_Driver/Src/stm32l4xx_hal_pcd.o
 .debug_line    0x0000000000002bee      0x92a Drivers/STM32L4xx_HAL_Driver/Src/stm32l4xx_hal_pcd_ex.o
 .debug_line    0x0000000000003518      0xcab Drivers/STM32L4xx_HAL_Driver/Src/stm32l4xx_hal_pwr_ex.o
 .debug_line    0x00000000000041c3      0xb8e Drivers/STM32L4xx_HAL_Driver/Src/stm32l4xx_hal_rcc.o
 .debug_line    0x0000000000004d51      0xe28 Drivers/STM32L4xx_HAL_Driver/Src/stm32l4xx_hal_rcc_ex.o
 .debug_line    0x0000000000005b79      0xe2c Drivers/STM32L4xx_HAL_Driver/Src/stm32l4xx_ll_usb.o
 .debug_line    0x00000000000069a5      0xae0 Middlewares/ST/STM32_USB_Device_Library/Class/HID/Src/usbd_hid.o
 .debug_line    0x0000000000007485      0xb49 Middlewares/ST/STM32_USB_Device_Library/Core/Src/usbd_core.o
 .debug_line    0x0000000000007fce      0xb60 Middlewares/ST/STM32_USB_Device_Library/Core/Src/usbd_ctlreq.o
 .debug_line    0x0000000000008b2e      0x9d4 Middlewares/ST/STM32_USB_Device_Library/Core/Src/usbd_ioreq.o
 .debug_line    0x0000000000009502      0xa81 Src/main.o
 .debug_line    0x0000000000009f83      0x847 Src/stm32l4xx_hal_msp.o
 .debug_line    0x000000000000a7ca      0x87f Src/stm32l4xx_it.o
 .debug_line    0x000000000000b049      0x880 Src/system_stm32l4xx.o
 .debug_line    0x000000000000b8c9      0x9ea Src/usb_device.o
 .debug_line    0x000000000000c2b3      0xcb7 Src/usbd_conf.o
 .debug_line    0x000000000000cf6a      0x9cf Src/usbd_desc.o
 .debug_line    0x000000000000d939       0x7f startup/startup_stm32l476xx.o

.debug_str      0x0000000000000000    0xe1645
 .debug_str     0x0000000000000000    0xdd421 Drivers/STM32L4xx_HAL_Driver/Src/stm32l4xx_hal.o
                                      0xdd8fb (size before relaxing)
 .debug_str     0x00000000000dd421      0x383 Drivers/STM32L4xx_HAL_Driver/Src/stm32l4xx_hal_cortex.o
                                      0xdd577 (size before relaxing)
 .debug_str     0x00000000000dd7a4      0x311 Drivers/STM32L4xx_HAL_Driver/Src/stm32l4xx_hal_gpio.o
                                      0xdd041 (size before relaxing)
 .debug_str     0x00000000000ddab5      0xb60 Drivers/STM32L4xx_HAL_Driver/Src/stm32l4xx_hal_pcd.o
                                      0xdd771 (size before relaxing)
 .debug_str     0x00000000000de615      0x171 Drivers/STM32L4xx_HAL_Driver/Src/stm32l4xx_hal_pcd_ex.o
                                      0xdd267 (size before relaxing)
 .debug_str     0x00000000000de786      0x4ab Drivers/STM32L4xx_HAL_Driver/Src/stm32l4xx_hal_pwr_ex.o
                                      0xdd27c (size before relaxing)
 .debug_str     0x00000000000dec31      0x4dd Drivers/STM32L4xx_HAL_Driver/Src/stm32l4xx_hal_rcc.o
                                      0xdd398 (size before relaxing)
 .debug_str     0x00000000000df10e      0x621 Drivers/STM32L4xx_HAL_Driver/Src/stm32l4xx_hal_rcc_ex.o
                                      0xdd539 (size before relaxing)
 .debug_str     0x00000000000df72f      0x3dd Drivers/STM32L4xx_HAL_Driver/Src/stm32l4xx_ll_usb.o
                                      0xdd5ce (size before relaxing)
 .debug_str     0x00000000000dfb0c     0x1158 Middlewares/ST/STM32_USB_Device_Library/Class/HID/Src/usbd_hid.o
                                      0xdddc4 (size before relaxing)
 .debug_str     0x00000000000e0c64      0x298 Middlewares/ST/STM32_USB_Device_Library/Core/Src/usbd_core.o
                                      0xddc0f (size before relaxing)
 .debug_str     0x00000000000e0efc      0x112 Middlewares/ST/STM32_USB_Device_Library/Core/Src/usbd_ctlreq.o
                                      0xddb29 (size before relaxing)
 .debug_str     0x00000000000e100e       0x79 Middlewares/ST/STM32_USB_Device_Library/Core/Src/usbd_ioreq.o
                                      0xdda56 (size before relaxing)
 .debug_str     0x00000000000e1087      0x1ad Src/main.o
                                      0xde86f (size before relaxing)
 .debug_str     0x00000000000e1234       0x1b Src/stm32l4xx_hal_msp.o
                                      0xdd1d9 (size before relaxing)
 .debug_str     0x00000000000e124f       0x80 Src/stm32l4xx_it.o
                                      0xdcfe5 (size before relaxing)
 .debug_str     0x00000000000e12cf       0x50 Src/system_stm32l4xx.o
                                      0xdcd66 (size before relaxing)
 .debug_str     0x00000000000e131f       0x3e Src/usb_device.o
                                      0xde003 (size before relaxing)
 .debug_str     0x00000000000e135d       0x87 Src/usbd_conf.o
                                      0xdec31 (size before relaxing)
 .debug_str     0x00000000000e13e4      0x261 Src/usbd_desc.o
                                      0xdd92f (size before relaxing)

.comment        0x0000000000000000       0x7f
 .comment       0x0000000000000000       0x7f Drivers/STM32L4xx_HAL_Driver/Src/stm32l4xx_hal.o
                                         0x80 (size before relaxing)
 .comment       0x000000000000007f       0x80 Drivers/STM32L4xx_HAL_Driver/Src/stm32l4xx_hal_cortex.o
 .comment       0x000000000000007f       0x80 Drivers/STM32L4xx_HAL_Driver/Src/stm32l4xx_hal_gpio.o
 .comment       0x000000000000007f       0x80 Drivers/STM32L4xx_HAL_Driver/Src/stm32l4xx_hal_pcd.o
 .comment       0x000000000000007f       0x80 Drivers/STM32L4xx_HAL_Driver/Src/stm32l4xx_hal_pcd_ex.o
 .comment       0x000000000000007f       0x80 Drivers/STM32L4xx_HAL_Driver/Src/stm32l4xx_hal_pwr_ex.o
 .comment       0x000000000000007f       0x80 Drivers/STM32L4xx_HAL_Driver/Src/stm32l4xx_hal_rcc.o
 .comment       0x000000000000007f       0x80 Drivers/STM32L4xx_HAL_Driver/Src/stm32l4xx_hal_rcc_ex.o
 .comment       0x000000000000007f       0x80 Drivers/STM32L4xx_HAL_Driver/Src/stm32l4xx_ll_usb.o
 .comment       0x000000000000007f       0x80 Middlewares/ST/STM32_USB_Device_Library/Class/HID/Src/usbd_hid.o
 .comment       0x000000000000007f       0x80 Middlewares/ST/STM32_USB_Device_Library/Core/Src/usbd_core.o
 .comment       0x000000000000007f       0x80 Middlewares/ST/STM32_USB_Device_Library/Core/Src/usbd_ctlreq.o
 .comment       0x000000000000007f       0x80 Middlewares/ST/STM32_USB_Device_Library/Core/Src/usbd_ioreq.o
 .comment       0x000000000000007f       0x80 Src/main.o
 .comment       0x000000000000007f       0x80 Src/stm32l4xx_hal_msp.o
 .comment       0x000000000000007f       0x80 Src/stm32l4xx_it.o
 .comment       0x000000000000007f       0x80 Src/system_stm32l4xx.o
 .comment       0x000000000000007f       0x80 Src/usb_device.o
 .comment       0x000000000000007f       0x80 Src/usbd_conf.o
 .comment       0x000000000000007f       0x80 Src/usbd_desc.o

.debug_frame    0x0000000000000000     0x1d8c
 .debug_frame   0x0000000000000000      0x23c Drivers/STM32L4xx_HAL_Driver/Src/stm32l4xx_hal.o
 .debug_frame   0x000000000000023c      0x13c Drivers/STM32L4xx_HAL_Driver/Src/stm32l4xx_hal_cortex.o
 .debug_frame   0x0000000000000378       0xd0 Drivers/STM32L4xx_HAL_Driver/Src/stm32l4xx_hal_gpio.o
 .debug_frame   0x0000000000000448      0x30c Drivers/STM32L4xx_HAL_Driver/Src/stm32l4xx_hal_pcd.o
 .debug_frame   0x0000000000000754       0xb8 Drivers/STM32L4xx_HAL_Driver/Src/stm32l4xx_hal_pcd_ex.o
 .debug_frame   0x000000000000080c      0x278 Drivers/STM32L4xx_HAL_Driver/Src/stm32l4xx_hal_pwr_ex.o
 .debug_frame   0x0000000000000a84      0x154 Drivers/STM32L4xx_HAL_Driver/Src/stm32l4xx_hal_rcc.o
 .debug_frame   0x0000000000000bd8      0x1f4 Drivers/STM32L4xx_HAL_Driver/Src/stm32l4xx_hal_rcc_ex.o
 .debug_frame   0x0000000000000dcc      0x4ec Drivers/STM32L4xx_HAL_Driver/Src/stm32l4xx_ll_usb.o
 .debug_frame   0x00000000000012b8       0xb8 Middlewares/ST/STM32_USB_Device_Library/Class/HID/Src/usbd_hid.o
 .debug_frame   0x0000000000001370      0x1bc Middlewares/ST/STM32_USB_Device_Library/Core/Src/usbd_core.o
 .debug_frame   0x000000000000152c      0x178 Middlewares/ST/STM32_USB_Device_Library/Core/Src/usbd_ctlreq.o
 .debug_frame   0x00000000000016a4       0xb8 Middlewares/ST/STM32_USB_Device_Library/Core/Src/usbd_ioreq.o
 .debug_frame   0x000000000000175c       0xbc Src/main.o
 .debug_frame   0x0000000000001818       0x2c Src/stm32l4xx_hal_msp.o
 .debug_frame   0x0000000000001844       0x60 Src/stm32l4xx_it.o
 .debug_frame   0x00000000000018a4       0x30 Src/system_stm32l4xx.o
 .debug_frame   0x00000000000018d4       0x4c Src/usb_device.o
 .debug_frame   0x0000000000001920      0x340 Src/usbd_conf.o
 .debug_frame   0x0000000000001c60       0xb8 Src/usbd_desc.o
 .debug_frame   0x0000000000001d18       0x28 /home/brian/Ac6/SystemWorkbench/plugins/fr.ac6.mcu.externaltools.arm-none.linux64_1.15.0.201708311556/tools/compiler/bin/../lib/gcc/arm-none-eabi/6.3.1/../../../../arm-none-eabi/lib/thumb/v7e-m/fpv4-sp/hard/libc_nano.a(lib_a-exit.o)
 .debug_frame   0x0000000000001d40       0x2c /home/brian/Ac6/SystemWorkbench/plugins/fr.ac6.mcu.externaltools.arm-none.linux64_1.15.0.201708311556/tools/compiler/bin/../lib/gcc/arm-none-eabi/6.3.1/../../../../arm-none-eabi/lib/thumb/v7e-m/fpv4-sp/hard/libc_nano.a(lib_a-init.o)
 .debug_frame   0x0000000000001d6c       0x20 /home/brian/Ac6/SystemWorkbench/plugins/fr.ac6.mcu.externaltools.arm-none.linux64_1.15.0.201708311556/tools/compiler/bin/../lib/gcc/arm-none-eabi/6.3.1/../../../../arm-none-eabi/lib/thumb/v7e-m/fpv4-sp/hard/libnosys.a(_exit.o)
